:100000000C9406010C9437010C9437010C943701C1
:100010000C9437010C9437010C9437010C94370180
:100020000C9437010C9437010C9437010C94370170
:100030000C9437010C9437010C9437010C94370160
:100040000C9437010C9437010C9437010C94370150
:100050000C9437010C9437010C9437010C94CE1199
:100060000C9437010C9490130C9480140C94370169
:100070000C9437010C9437010C9437010C94370120
:100080000C9437010C9437010C9437010C94370110
:100090000C94C4130C94BF140C9437010C943701C6
:1000A0000C9437010C9437010C9437010C943701F0
:1000B0000C9437010C9437010C9437010C943701E0
:1000C0000C9437010C9437010C9437010C94F813FD
:1000D0000C94FE140C9437010C942C140C943D15C4
:1000E0000C943701084AD73B3BCE016E84BCBFFD60
:1000F000C12F3D6C74319ABD56833DDA3D00C77FF8
:1001000011BED9E4BB4C3E916BAAAABE0000008090
:100110003F100000002000000040000000800000B0
:1001200000010000000800000002000000040000C0
:1001300000000100000002000000040000000800B0
:1001400000001000000020000000400000008000BF
:100150000000000100000008000000100000010283
:100160000408090A0C0D0E0F00000000000000003A
:100170000000FF27100032FF27100032FF27100079
:1001800032FF2710003200000000000000000000D5
:1001900000000000000000000C9435170C94E00CE7
:1001A0000C9491010C9439130C94FF150C94E90CE8
:1001B0000C9416040C9439010C943C0F0C948B0491
:1001C0000C942E130C94E10C0C94DF120C940C1371
:1001D0000C9469020C943C010C944F100C94E60CA6
:1001E0000C94DE0C0C94FB0C0C945F140C94960A8B
:1001F0000C94AB010C94F1120C94D1120C94E30CFE
:100200000C940F020C94BD016902FF1511241FBE4E
:10021000CFEFD1E2DEBFCDBF00E00CBF12E0A0E027
:10022000B2E0E0EDF6E300E00BBF02C007900D92F4
:10023000A03AB107D9F716E0A0EAB2E001C01D92DA
:10024000A638B107E1F712E0CCE0D2E000E006C04A
:1002500022970109FE010BBF0E943F1BC830D10746
:1002600080E00807A9F70E94D2120C94661B0C9438
:100270000000FC01808508959F92AF92BF92CF92BB
:10028000DF92EF92FF920F931F93CF93DF93EC01D6
:1002900062E070E084E090E00E94431B5C01E88132
:1002A000F9810190F081E02DCE011995882361F14B
:1002B00088E1C82E82E0D82E8501E12CF12C99240A
:1002C0009394F601619171916F01F2E0EF0EF11CD0
:1002D0008C819D810E94B70D282F30E0F801219379
:1002E00031938F01EE81FF81EE0DFF1D4081518121
:1002F0002417350721F031832083988601C01886A2
:10030000F8E0EF16F104E9F6C501DF91CF911F91F6
:100310000F91FF90EF90DF90CF90BF90AF909F90A4
:1003200008950F931F93CF93DF93DC01ED91FC9120
:100330000480F581E02D1995EC016EE070E00E94DB
:10034000A0028C01CE010E94CF12C801DF91CF9193
:100350001F910F910895CF93DF93EC018A819B81C8
:100360000E94DF0BEC81FD818281811102C08481BA
:1003700001C081E0DF91CF910895CF92DF92EF929B
:10038000FF920F931F93CF93DF93EC0161E070E036
:100390008EE090E00E94431B6C01E881F98101909E
:1003A000F081E02DCE011995811118C06EE070E04A
:1003B000C6010E94A0020E811F81F80120813181B7
:1003C0008217930709F16EE070E0C6010E94A00257
:1003D000F8019183808381E0888717C090E2E92E3D
:1003E00092E0F92E8601F701619171917F018C8174
:1003F0009D810E94810DF80181938F01FCE3EF162E
:10040000F2E0FF0681F7D2CF1886C601DF91CF91C7
:100410001F910F91FF90EF90DF90CF900895CF92B2
:10042000DF92EF92FF920F931F93CF93DF938C0194
:1004300064E070E082E090E00E94431B6C01D80110
:10044000ED91FC910190F081E02DC8011995882370
:10045000C1F024E1E22E22E0F22ECC2DDD2DD701D9
:100460006D917D917D01F801848195810E94BC0D83
:100470006993799389939993F0E3EF16F2E0FF067D
:1004800071F7C601DF91CF911F910F91FF90EF900F
:10049000DF90CF90089580EA92E00C94A703CF9369
:1004A000DF9380EA92E00E943C01EC0180EA92E056
:1004B0000E9491018091A802882331F06AE072E0E5
:1004C00080E494E00E949017CE01DF91CF910C94CC
:1004D000CF12AF92CF92EF920F9383E593E00E94F9
:1004E000C803A12CC12CE12C00E020E040E063E532
:1004F00073E089EA92E00E94110D63E573E080EAFF
:1005000092E00E94070380E492E09093A10280931E
:10051000A00289EA92E09093A5028093A40262E08F
:1005200070E085E090E00E94431B9093A7028093C7
:10053000A6021092A8020F91EF90CF90AF9008956D
:10054000EF92FF920F931F93CF93DF937B01613163
:1005500071050CF053C0E0E0F0E041E050E060E0F5
:1005600070E08A019B010E2E04C0000F111F221F94
:10057000331F0A94D2F7EE15FF054CF49C012E0FA1
:100580003F1FD9012C91222311F0C02B02C00095EE
:10059000C0239F01285F3F4F2E153F05A4F49C0107
:1005A0002E0F3F1FD90118962C91222361F08A014A
:1005B0009B010E2E04C0000F111F221F331F0A942F
:1005C000D2F7D02B0CC08A019B010E2E04C0000F65
:1005D000111F221F331F0A94D2F70095D0233196A2
:1005E000E830F10509F0BDCF6D2F8C2FDF91CF9151
:1005F0001F910F91FF90EF900C94A2178FEF9FEF38
:10060000DF91CF911F910F91FF90EF90089524E615
:1006100032E0FC0131832083738362830895289A3A
:10062000089528988EBD0DB407FEFDCF1EBC0DB4F5
:1006300007FEFDCF0E940F038EB5089528988260B3
:100640008EBD0DB407FEFDCF6EBD0DB407FEFDCF10
:100650000C940F0388EF0E941103807C8034A1F07A
:1006600018F4882301F10895803819F0803CB9F01E
:10067000089588ED0E94110381FD0BC069EC88ED9F
:100680000E941E0382E00CC088ED0E94110381FDD0
:10069000F5CF6BEC88ED0E941E0383E001C081E082
:1006A0008093CA03089561ED88ED0E941E031092A5
:1006B000CA0308950F931F93CF93DF938C01209A61
:1006C0000E940F03219A229A2398209A80E58CBDDC
:1006D00081E08DBD6E9868E188E80E941E0360E2AB
:1006E00088E70E941E0360E088E70E941E03C0E0C6
:1006F000D0E088E60E941103219680FD06C0CF3F1E
:100700008FEFD807B1F78FEF1DC061EC88ED0E9425
:100710001E0360E680ED0E941E0364E088EE0E94E6
:100720001E0388EE0E94110382FFFBCFC8010E94C6
:100730002A0360E288EC0E941E0361E080E80E94C8
:100740001E0380E0DF91CF911F910F910895CF9309
:10075000DF93EC0140E052EC61E070E080E494E073
:100760000E947C1580E494E00E94FD158823D1F35B
:100770008A819B810E945A038F3F39F46CE472E0B6
:1007800080E494E00E947317FFCFDF91CF9108952A
:10079000FC01809104018460809304018091050133
:1007A00084608093050184E792E0918380831582C1
:1007B000108681E0818712869F012E5F3F4F37832D
:1007C0002683128288E083838CE3848380E090E038
:1007D00041E0DF01A80FB91F1D961C921D971E96C0
:1007E0004C931E971F961C921F971C963C932E931A
:1007F0001B9705968B34910561F7EA58FF4F1082DD
:1008000081E18093CF03089520E030E041E0FC01D6
:10081000E20FF31F5585561739F04F5F2B5F3F4F9F
:100820004031A9F780E00895842F0895EF92FF9258
:100830001F93CF93DF931F921F92CDB7DEB77C013A
:10084000162F67FD5FC0283008F05CC0442331F0EC
:10085000DC0115968C91873009F454C060E0C70123
:100860002A8349830E9404042A814981882309F448
:1008700049C0E82FF0E0111123C085E08E9FD00120
:100880008F9FB00D1124AE0DBF1D442359F081E49C
:1008900018968C93D70115968C9115978F5F1596A6
:1008A0008C9303C081E018968C9385E08E9FD001D5
:1008B0008F9FB00D1124AE0DBF1D18968C9123C0D3
:1008C000612F6770660F660F660F442361F06064E6
:1008D000D70115968C9115978F5F15968C9387701D
:1008E000687F682B03C02770687B622B85E08E9F32
:1008F000D0018F9FB00D1124AE0DBF1D18966C93C3
:10090000862F01C080E00F900F90DF91CF911F9153
:10091000FF90EF900895CF93DF93EC01611102C037
:1009200006960FC00E940404882349F09E0145E00A
:10093000849F200D311D1124C901069602C080E05C
:1009400090E0DF91CF910895CF93DF931F92CDB7C1
:10095000DEB749830E948B044981009789F0DC014E
:10096000ED91FC911197309759F013969C9180E08E
:10097000891731F02081241731F033968F5FF8CF3B
:1009800080E090E001C0CF010F90DF91CF910895FA
:10099000EF92FF921F93CF93DF931F92CDB7DEB7F5
:1009A000162F79012115310569F049830E948B04C6
:1009B000FC014981009741F01283F182E082438378
:1009C00080E003C088ED01C086ED0F90DF91CF91EC
:1009D0001F91FF90EF90089528980895CF93DF938B
:1009E0001F92CDB7DEB789830E94EC0489818EBD4A
:1009F0000DB407FEFDCF1EBC0DB407FEFDCF0E9457
:100A00000F038EB50F90DF91CF910895CF93DF93B1
:100A10001F921F92CDB7DEB76A8389830E94EC04D0
:100A2000898182608EBD6A810DB407FEFDCF6EBDE7
:100A30000DB407FEFDCF0F900F90DF91CF910C9476
:100A40000F038F929F92BF92CF92DF92EF92FF920D
:100A50000F931F93CF93DF931F92CDB7DEB74C0157
:100A6000B62E690149830E948B047C01498100975D
:100A700009F443C0FC0180819181892B09F43FC0B6
:100A80006B2DC4010E94A404F6019183808300971A
:100A9000C1F1FC01228126952695822F90E0409796
:100AA00064F441E050E060E070E004C0440F551F82
:100AB000661F771F2A95D2F702C040E050E84150E8
:100AC0005109F801518340836B2D80EE0E94060589
:100AD00088ED0E94EE04F7019481992339F0F40126
:100AE000EA58FF4F60816260682B02C0682F697FFF
:100AF00088ED0E94060580E005C086ED03C087ED05
:100B000001C08BED0F90DF91CF911F910F91FF905E
:100B1000EF90DF90CF90BF909F908F9008958F922D
:100B20009F92AF92BF92CF92DF92EF92FF920F937C
:100B30001F93CF93DF931F92CDB7DEB7A62E890107
:100B400049830E9418126B017C0180E1C80E87E284
:100B5000D81EE11CF11C812C912CB12C20E0498184
:100B6000A42A29830E94181229816C157D058E05FF
:100B70009F0560F56A2D80EF0E9406050E941812FD
:100B80006C157D058E059F0548F488EC0E94EE04E7
:100B900087FFF4CF60E888EC0E94060588EF0E948A
:100BA000EE04282F2F70243019F02E3059F00EC08B
:100BB000EFEF8E1A9E0A0115110599F28016910623
:100BC00081F604C0B394F3E0BF12CBCF822F0F9015
:100BD000DF91CF911F910F91FF90EF90DF90CF9019
:100BE000BF90AF909F908F9008959F92AF92BF92C9
:100BF000CF92DF92EF92FF920F931F93CF93DF93E9
:100C00007C01B42E122FAA24A394DC01A60FB11DDF
:100C1000A60FB11D6D0186E5C80ED11CC42FD0E012
:100C2000AB96CC0FDD1FCE0DDF1DD6018D919C91B3
:100C3000DC01ED91FC910280F381E02D202F412F0A
:100C40006B2D1995803EC1F4B1100BC061E088EEA8
:100C50000E94060566E670E080E090E00E94471280
:100C600015C088819981DC01ED91FC910284F385A6
:100C7000E02D612F19950AC08D3031F48FEF8A0D68
:100C8000833008F042C017C0811142C0F601808154
:100C90009181DC01ED91FC910190F081E02D202FFC
:100CA000412F6B2D1995982EBDE08B130CC08FEF43
:100CB0008A0D833050F464E670E080E090E00E949A
:100CC0004712A394B2CF882311F1B1100BC061E099
:100CD00088EE0E94060566E670E080E090E00E94E3
:100CE000471211C0EB2DF0E0BB96EE0FFF1FEE0D8B
:100CF000FF1D80819181DC01ED91FC910284F385DF
:100D0000E02D612F1995892D03C08DE001C080E091
:100D1000DF91CF911F910F91FF90EF90DF90CF90D7
:100D2000BF90AF909F9008950F931F93CF93DF9341
:100D30001F921F92CDB7DEB78A016A8389830E9412
:100D4000EC04898182608EBDF8016A81862F882338
:100D500039F00DB407FEFDCF91919EBD8150F7CFC4
:100D6000060F111D0DB407FEFDCF0E940F03C80131
:100D70000F900F90DF91CF911F910F9108952F92B7
:100D80003F924F925F926F927F928F929F92AF921B
:100D9000BF92CF92DF92EF92FF920F931F93CF9368
:100DA000DF9300D01F921F92CDB7DEB77D836C8397
:100DB0005A016901FB0121808FEF820D803408F018
:100DC0006FC00E9418122B013C01F0E14F0EF7E2B8
:100DD0005F1E611C711CEC81FD81828180FF02C05D
:100DE00060E801C060E488EE0E94060520E0312C36
:100DF000C114D10409F444C076012C143D0408F454
:100E00007101EA82A8016E2D80E10E9494066E2D88
:100E100088E30E940605EC81FD816081606280EFBD
:100E20000E94060588EC0E94EE0487FFFBCF60E875
:100E300088EC0E94060588EF0E94EE04282F2F7090
:100E4000812C912C1982222309F46BC02B830E94E0
:100E500018122B81641575058605970508F061C089
:100E6000263001F12E3009F456C0243049F4FFEF4A
:100E70008F1A9F0AA114B10459F18A149B0441F5F9
:100E800088EF2B830E94EE0485FB882780F9EC8194
:100E9000FD81928180FB90F992832B81822F46C045
:100EA0008AED44C088EF0E94EE0485FB882780F914
:100EB00091E08927EC81FD81928180FB90F99283FA
:100EC00090FF02C060E801C060E488EE0E94060561
:100ED00060E088E30E940605F801608180E10E94DD
:100EE00006056A8188E30E940605EC81FD81608128
:100EF000606280EF0E94060588EC0E94EE0487FF86
:100F0000FBCF60E888EC0E94060588EF0E94EE04A3
:100F1000282F2F7098CF89818F5F89838330C1F606
:100F2000AFCFCE18DF080E0D1F1D62CF0F900F90B0
:100F30000F900F900F90DF91CF911F910F91FF9025
:100F4000EF90DF90CF90BF90AF909F908F907F9069
:100F50006F905F904F903F902F900895AF92BF9207
:100F6000CF92DF92EF92FF920F931F93CF93DF9375
:100F700000D01F92CDB7DEB77C01690158011C82F9
:100F80001B821A8219828E010F5F1F4F9E012D5FF7
:100F90003F4F0E942105811109C049815A816B810F
:100FA0007C8185019601C7010E94BF060F900F90BA
:100FB0000F900F90DF91CF911F910F91FF90EF90C5
:100FC000DF90CF90BF90AF9008952F923F924F92B5
:100FD0005F926F927F928F929F92AF92BF92CF92C9
:100FE000DF92EF92FF920F931F93CF93DF9300D086
:100FF0001F92CDB7DEB75C017C836B834A01790118
:10100000F901C080D180FB014180F9011182108279
:10101000FB01828181FF02C060E201C060E188EED5
:101020000E9406053C2C9401EB81FC81408160E02C
:10103000C5010E948F05582EF6E08F1317C088EF68
:101040000E94EE0485FB882780F991E08927EB81D7
:10105000FC81928180FB91F9928391FF02C060E252
:1010600001C060E188EE0E940605DDCF81115AC003
:1010700088EC0E94EE0482FF53C080E30E94EE04DD
:10108000282E282F30E0C216D30608F4232CF701AF
:1010900020813181622C712CA601421B530B57FF1A
:1010A00002C040E050E09301461557050CF49A0148
:1010B00029833A830E94EC04F8E0FEBD3A8129813D
:1010C0000DB407FEFDCFF801822F800F8E1739F087
:1010D0001EBC0DB407FEFDCF4EB54193F7CF020FF6
:1010E000131F0E940F0364E088EC0E940605F701BD
:1010F00020813181260D371D31832083241420F077
:101100002C153D0508F48FCF88EF0E94EE048295E0
:101110008170EB81FC81928180FB91F9928302C006
:1011200030EF532E852D0F900F900F900F90DF9181
:10113000CF911F910F91FF90EF90DF90CF90BF90D4
:10114000AF909F908F907F906F905F904F903F9067
:101150002F9008952F923F924F925F926F927F92BD
:101160008F929F92AF92BF92CF92DF92EF92FF92B7
:101170000F931F93CF93DF93CDB7DEB762970FB670
:10118000F894DEBF0FBECDBF3C01542ED22E402EB0
:101190005E2D28A439A4EAA4FBA4188A1F861E8603
:1011A0001D868E01035F1F4F9E01215F3F4F598BAC
:1011B0000E9421055989811193C0D9824A825B839B
:1011C000CC82BE82AD8298868F82AE014F5F5F4F28
:1011D00068E080E20E9494062D853E85452D60E101
:1011E000C3010E948F05182F811179C0BD2CBB1C33
:1011F000BB24BB1CE114F10409F465C0EF85F88938
:101200008281BB2009F452C0826082836401AA24D7
:10121000A394C114D10409F454C03C862B864D8597
:101220005E856F85788987019E01255F3F4FC301E9
:101230000E94E507182F8630B1F42F85388988EF92
:10124000298B3A8B0E94EE0485FB882780F98A253A
:1012500029893A89D90112969C91129780FB91F9BC
:1012600012969C93D6CF81113AC0ECA5FDA530977C
:10127000A1F00190F081E02D0190F081E02DC401FA
:101280008C199D099A8789876B857C859E01275FCC
:101290003F4FA7018CA59DA519958B859C85C81AE4
:1012A000D90A8215930508F0B4CF0DC081608283FE
:1012B0004D855E8587019101BF01C3010E94BF0674
:1012C000182F11110CC02D853E85BB2011F060EA4E
:1012D00001C060E8452DC3010E948F0501C0812F28
:1012E00062960FB6F894DEBF0FBECDBFDF91CF91EF
:1012F0001F910F91FF90EF90DF90CF90BF90AF9034
:101300009F908F907F906F905F904F903F902F9025
:1013100008958F929F92AF92BF92CF92EF920F93C8
:101320001F931F921F921F930F933F932F93490177
:10133000A12CB12CCC24C394E12C06E020E80E941F
:10134000AA080F900F900F900F900F900F901F9181
:101350000F91EF90CF90BF90AF909F908F90089596
:101360008F929F92AF92BF92CF92EF920F93CF93B3
:101370001F921F921F921F921F921F92812C912CDD
:10138000A12CB12CC12CE22E05E020E00E94AA087D
:10139000C82F6CE271E080E090E00E9447120F904D
:1013A0000F900F900F900F900F908C2FCF910F9167
:1013B000EF90CF90BF90AF909F908F9008958F92B5
:1013C0009F92AF92BF92CF92EF920F931F921F9274
:1013D0001F921F921F921F92812C912CA12CB12C35
:1013E000C12CE22E09E020E00E94AA080F900F9085
:1013F0000F900F900F900F900F91EF90CF90BF90A4
:10140000AF909F908F900895AF92BF92CF92DF924E
:10141000EF92FF920F931F93CF93DF9300D01F9211
:10142000CDB7DEB77C01690158011C821B821A828C
:1014300019828E010F5F1F4F9E012D5F3F4F0E944B
:101440002105811109C049815A816B817C81850107
:101450009601C7010E94E5070F900F900F900F9023
:10146000DF91CF911F910F91FF90EF90DF90CF9080
:10147000BF90AF900895CF92DF92FF920F931F938A
:10148000CF93DF931F921F92CDB7DEB76C01662317
:1014900009F442C0062F10E085E0689FB0011124D6
:1014A000F601E60FF71F8085282F277086FF19C0E9
:1014B00031E0E5E0FE2EF601F39EE00DF11D112472
:1014C000808586958695869587708217E1F03F5FC7
:1014D000303188F3F6018581821303C02150F60173
:1014E000258385E0809FF001819FF00D1124EC0D94
:1014F000FD1D108681E08187128682E0C80ED11C16
:10150000D782C68209C0632FC6012A8339830E940D
:101510003B0A2A813981CFCF0F900F90DF91CF9175
:101520001F910F91FF90DF90CF900895CF93DF939D
:10153000EC016134A1F4FC01855B9F4F41E09E0109
:101540002E5F3F4F1586468717863487238735964B
:10155000E817F907B9F71D82DF91CF9108950E942E
:101560000404682FCE01DF91CF910C943B0A0F93B6
:101570001F93CF93DF93EC01022FCA3F8FEFD80761
:1015800011F486ED29C08E819F81892B01F12A8774
:10159000242F40E0CE010E941604182F8823C9F0A2
:1015A000682FCE010E948B04009759F3FC0104833D
:1015B000212F40E060E0CE010E94B009082F88236F
:1015C00051F0612FCE010E94960A802F05C087ED51
:1015D00003C084ED01C080E0DF91CF911F910F9196
:1015E00008953F924F925F926F927F928F929F9257
:1015F000AF92BF92CF92DF92EF92FF920F931F9321
:10160000CF93DF93CDB7DEB765970FB6F894DEBF03
:101610000FBECDBF7C01662E542E722E1B8A88E031
:101620008C8B8CE38D8BD701ED91FC910190F08137
:10163000E02D60E0C70119956C01009709F48FC097
:10164000FC01A080B180CE01439691838083748297
:101650008E010F5F1F4F22E130E040E060E0C701E4
:101660000E948909D601AD92BC92811190C0A984D3
:10167000BA848B849C844D806701312C86010A5A80
:101680001F4FF80180819181009751F43394F2E06B
:10169000CF0ED11C80E13812F1CF6701312C25C06B
:1016A000DC01ED91FC910084F185E02D199581110B
:1016B000EDCFF80180819181DC01ED91FC910484F2
:1016C000F585E02DA401B501199581114AC0F801F5
:1016D00080819181DC01ED91FC910684F785E02DFC
:1016E000642D199581113DC0D1CF86010A5A1F4F33
:1016F000F80180819181009721F1DC01ED91FC914D
:101700000084F185E02D199581111BC0F8018081BD
:101710009181DC01ED91FC910484F585E02DA4011B
:10172000B501199581110DC0F80180819181DC010D
:10173000ED91FC910684F785E02D642D19958823A1
:10174000D9F03394B2E0CB0ED11CE0E13E12CDCF04
:10175000272D452D662DC7010E94B70A18C086EDBA
:1017600016C0072D252D462D632DC7010E94F505B6
:10177000813D09F48BCF0BC0072D252D462D632D00
:10178000C7010E94F505982F977F913DD1F265968C
:101790000FB6F894DEBF0FBECDBFDF91CF911F9182
:1017A0000F91FF90EF90DF90CF90BF90AF909F9000
:1017B0008F907F906F905F904F903F900895CF9261
:1017C000DF92EF92FF921F93CF93DF93EC01669924
:1017D0000EC088EC0E94EE0485FF05C0CE010E9479
:1017E0002A0360E201C060E088EC0E940605809157
:1017F000CA03813049F050F0823021F0833031F556
:1018000011E00DC010E00BC083E106C08091CF0352
:10181000807F8031D9F081E18093CF0317C0809120
:10182000CF03807F803199F40E94181268537F4F54
:101830008F4F9F4F6093CB037093CC038093CD0366
:101840009093CE0380E28093CF0301C010E0E12C9F
:10185000F12CFE01EE0DFF1DEA5AFF4F80819181B0
:10186000009739F0DC01ED91FC910680F781E02DC5
:101870001995B2E0EB0EF11C80E2E816F10449F78D
:101880008091CF03803409F448C070F4803279F13C
:101890008033E9F1813109F089C0FE01EA58FF4F38
:1018A0001082E12CF12C0AC0813509F45CC080382B
:1018B00009F46BC0803509F079C03EC0FE01EE0D21
:1018C000FF1DEA5AFF4F80819181009739F0DC01BA
:1018D000ED91FC910480F581E02D1995B2E0EB0EBD
:1018E000F11C80E2E816F10449F782E15DC0C09086
:1018F000CB03D090CC03E090CD03F090CE030E94B8
:101900001812C616D706E806F90608F04FC061E0BF
:1019100088EE0E94060580E447C088EE0E94EE042F
:1019200080FD44C088ED0E94EE04682F686088ED59
:101930000E94060580E538C088EC0E94EE0486FF10
:1019400035C081E58093CF030E9418126C5E7F4FF3
:101950008F4F9F4F6093CB037093CC038093CD0345
:101960009093CE0323C0C090CB03D090CC03E090E3
:10197000CD03F090CE030E941812C616D706E806D3
:10198000F906A0F480E88093CF03212F40E060E0C7
:10199000CE010E94F10A882331F0823D39F0809314
:1019A000D00380EA01C080E98093CF03DF91CF911B
:1019B0001F91FF90EF90DF90CF90089580E0089501
:1019C000089580E00895FC0187810895FC018389D2
:1019D00008956C34754069F4483682E0580711F474
:1019E00081E008954F3284E05807D1F3453D5340DC
:1019F000B9F380E00895CF93DF93EC011A821B8244
:101A00001C828D819E81DC01ED91FC910480F58129
:101A1000E02D6F8119951F821B8A80E0DF91CF91A5
:101A20000895AF92CF92EF920F93CF93DF93FC0183
:101A30008EE792E091838083768365831782138A91
:101A4000108688E081878CE382871386148684E081
:101A5000858716861786808B61157105C1F0CB01CD
:101A6000A0E0B0E0EC01CA5ADF4F0990D881C02D48
:101A7000CD2B41F49B96AA0FBB1FA60FB71FED936A
:101A8000FC9305C011960296A031B10559F741A704
:101A900020A707A3E6A2C5A2A4A2DF91CF910F9130
:101AA000EF90CF90AF9008950F931F93FC0145A541
:101AB00050E0542F442784A5482B60E070E086A5B1
:101AC000682B408F518F628F738F048D158D268DFB
:101AD000378D401751076207730781F00095109505
:101AE00020953095042315232623372300A311A323
:101AF00022A333A3448F558F668F778F1F910F9149
:101B00000895CF92DF92EF92FF920F931F93772762
:101B1000660F771F660F771F6F5E7E4FFB01C590C4
:101B2000D590E590F490FC0100A111A122A133A170
:101B3000B701A601409550956095709540235123BB
:101B40006223732340A351A362A373A30C211D211D
:101B50002E213F2181E0012B022B032B09F480E091
:101B60001F910F91FF90EF90DF90CF900895860F17
:101B7000911DFC0180A908958F929F92AF92BF9210
:101B8000CF92DF92EF92FF920F931F93CF93DF9349
:101B90007C01EB01FC018281882309F465C0ED5AC8
:101BA000FF4F608170E0762F6627F701EC5AFF4FF8
:101BB0008081682B80E090E00E94FD1920E030ECED
:101BC0004FEF53E40E94CE184B015C01B7FAB0947A
:101BD000B7F8B094F701EB5AFF4F1081F701EA5ABA
:101BE000FF4F0081F701E95AFF4F608170E0762FC7
:101BF0006627F701E85AFF4F8081682B80E090E06C
:101C00000E94FD1920E030EC4FEF53E40E94CE1803
:101C10006B017C01F7FAF094F7F8F094219789F4BE
:101C2000602F70E0712B80E090E00E94FD1920E0B1
:101C300030EC4FEF53E40E94CE189058A701960164
:101C400004C0A7019601C501B4010E9442192BED01
:101C50003FE049E450E40E94CF1821EE3EE245E621
:101C600052E40E94B71A03C060E070E0CB01DF913C
:101C7000CF911F910F91FF90EF90DF90CF90BF9089
:101C8000AF909F908F9008958F929F92AF92BF9246
:101C9000CF92EF920F93FC011F921F927F936F934D
:101CA0005F934F934A01A12CB12CA2E0CA2EEE24DF
:101CB000E39409E021E240856781858196810E9455
:101CC000AA080F900F900F900F900F900F900F9108
:101CD000EF90CF90BF90AF909F908F900895FC01B0
:101CE000ED58FF4F660F6083BC0166597F4F40E39C
:101CF00050E00C94440E6115710519F460E00C94E9
:101D00006F0EFB01FF27E35AFE4FE491DC01AD5853
:101D1000BF4FEF70EE0F2C91E22BEC93BC01665994
:101D20007F4F40E350E00C94440E6F927F928F926D
:101D30009F92AF92BF92CF92EF920F93CF93DF9388
:101D4000CDB7DEB728970FB6F894DEBF0FBECDBF74
:101D50003C0181E089831A826A5F7F4FDE0113961E
:101D6000CE010996FB012291BF012D93A817B90757
:101D7000C9F71F921F92CE0101969F938F931F92D6
:101D800088E08F93B8E08B2E912CA12CB12C03E02E
:101D9000C02E85EFE82E09E021E2F301408567813E
:101DA000858196810E94AA080F900F900F900F9046
:101DB0000F900F9028960FB6F894DEBF0FBECDBFE0
:101DC000DF91CF910F91EF90CF90BF90AF909F9008
:101DD0008F907F906F9008958F929F92AF92BF9255
:101DE000CF92EF920F93CF93DF9300D01F92CDB796
:101DF000DEB7FC0182E489838CE08A831B821C822B
:101E00001F921F92CE0101969F938F931F9284E0A1
:101E10008F9344E0842E912CA12CB12C53E0C52E3D
:101E200064EFE62E09E021E2408567818581968195
:101E30000E94AA080F900F900F900F900F900F9094
:101E40000F900F900F900F90DF91CF910F91EF9027
:101E5000CF90BF90AF909F908F9008950F931F9356
:101E6000FC019A018B0143856781858196810E94DF
:101E7000AE071F910F910895EF92FF920F931F935A
:101E8000CF93DF931F921F92CDB7DEB77C01FC0189
:101E90008389882309F44EC08281811103C0848123
:101EA000882329F180E490E09A8389838701065D85
:101EB0001F4F9E012F5F3F4FF70146856781858148
:101EC00096810E94040A0E941812F701048915895C
:101ED00026893789601B710B820B930B6536710560
:101EE0008105910538F1C7010E94540D23C0F70107
:101EF00083818823F9F00E941812F701048915895B
:101F000026893789601B710B820B930B613A7F40E6
:101F10008105910578F0B70166597F4F47E050E0A1
:101F2000C7010E942E0F0E941812F701648B758B57
:101F3000868B978B80E00F900F90DF91CF911F9150
:101F40000F91FF90EF900895FC01E459FF4F6083DB
:101F5000FC01E359FF4F4083FC01E259FF4F20830E
:101F6000BC0166597F4F47E050E00C942E0FCF9292
:101F7000DF92EF92FF920F931F93E42F042F152F00
:101F80009B01772737FD7A95632F522F412F6901E7
:101F9000FF24D7FCF094EF2C2E2F6C2D1F910F9166
:101FA000FF90EF90DF90CF900C94A40F8F929F92B0
:101FB000AF92BF92CF92EF920F931F93CF93DF9385
:101FC000CDB7DEB72B970FB6F894DEBF0FBECDBFEF
:101FD000DC0185E0898380E1888781E0898782E070
:101FE0008A8782E18B878B01CE0102969E01285F52
:101FF0003F4FF80141918F01FC014193CF01E2175E
:10200000F307B9F71F921F92CE0101969F938F930A
:102010001F928BE08F931BE0812E912CA12CB12C71
:1020200003E0C02E85E0E82E09E021E218964C91ED
:10203000189717966C91179715968D919C911697F6
:102040000E94AA080F900F900F900F900F900F9082
:102050002B960FB6F894DEBF0FBECDBFDF91CF91A8
:102060001F910F91EF90CF90BF90AF909F908F9066
:102070000895DC015196ED91FC915297309709F04B
:102080001994FC012381222331F040E050E06FEFEE
:1020900070E00C94B70F61E070E00C947B0E3F92FF
:1020A0004F925F926F927F928F929F92AF92BF9268
:1020B000CF92DF92EF92FF920F931F93CF93DF9314
:1020C000CDB7DEB762970FB6F894DEBF0FBECDBFB7
:1020D0007C01462E342E522EDC011596CD90DC90DC
:1020E000169717968C9181113CC1D601ED91FC9108
:1020F0000190F081E02D60E0C60119955C01009728
:1021000011F486ED33C1FC016080718061147104AB
:1021100009F429C14701F8E08F0E911CDC011196EA
:102120009C928E9214965C928E010F5F1F4F22E15B
:1021300030E040E060E0F701858196810E948909E6
:10214000182FD5016D927C92811101C16B847C8422
:1021500089859A858C34954009F0F8C0E8E66E16BA
:10216000E2E07E0659F0FFE26F16F4E07F0631F000
:1021700025ED621623E0720609F0E8C0D601ED9164
:10218000FC910280F381E02D232D40E0642DC601F7
:102190001995F7018783882309F4E7C0988591870B
:1021A000282F40E060E0858196810E94B009182FB9
:1021B000D601ED91FC91D50114961C92882359F01B
:1021C0000480F581E02DD70117966C91C601199511
:1021D000F7011782C4C00190F081E02DD701179656
:1021E0006C91C6011995009709F48BCFFC015482BC
:1021F000940141E0D70117966C91179715968D9130
:102200009C9116970E94C804182F8111A0C0E2E08B
:10221000DE2EF701D38690E4948784E0858701E081
:1022200006879787808B940143E06781858196813B
:102230000E94C804182F81118AC068EC70E080E009
:1022400090E00E94471221E0D70118964C91189710
:1022500017966C91179715968D919C9116970E94E1
:10226000DF09182F811173C0B8E66B16B2E07B0648
:1022700041F0EFE26E16E4E07E0639F5F7010483E3
:1022800003C0D70112960C93C7010E94EC0E80E0A8
:1022900090E0FC01E859FE4FE491D701A80FB91F67
:1022A000A659BF4FEC9301968033910591F78FE7C4
:1022B000D701D0968C93D097D1968C93D197D29604
:1022C0008C93D297D3968C9305C0F7010383E6597C
:1022D000FF4FD082D70194968C919497811118C0AA
:1022E00095968C919597811113C096968C9196979F
:1022F00081110EC097968C919797811109C098967D
:102300008C919897811104C099968C91882371F0D3
:10231000F7018381B7016C5D7F4F882321F0C701EE
:102320000E94D60F03C0C7010E94950EC7010E94EC
:10233000391081E0D70153968C930E941812F7014F
:10234000648B758B868B978B80E010C011EDD70165
:10235000ED91FC910480F581E02DC7011995812F45
:1023600005C089ED03C087ED01C084ED62960FB60C
:10237000F894DEBF0FBECDBFDF91CF911F910F91BB
:10238000FF90EF90DF90CF90BF90AF909F908F9095
:102390007F906F905F904F903F9008951F920F92A3
:1023A0000FB60F9211242F933F938F939F93AF9368
:1023B000BF938091D2039091D303A091D403B091A5
:1023C000D5033091D10323E0230F2D3720F401965C
:1023D000A11DB11D05C026E8230F0296A11DB11D48
:1023E0002093D1038093D2039093D303A093D4037B
:1023F000B093D5038091D6039091D703A091D803D1
:10240000B091D9030196A11DB11D8093D60390937D
:10241000D703A093D803B093D903BF91AF919F91F5
:102420008F913F912F910F900FBE0F901F90189595
:102430002FB7F8946091D2037091D3038091D403A5
:102440009091D5032FBF08953FB7F8948091D6039C
:102450009091D703A091D803B091D90326B5A89B3A
:1024600005C02F3F19F00196A11DB11D3FBF662782
:10247000782F892F9A2F620F711D811D911D42E0C7
:10248000660F771F881F991F4A95D1F70895CF923D
:10249000DF92EF92FF92CF93DF936B017C010E945A
:1024A0002412EB01C114D104E104F10479F00E947B
:1024B00024126C1B7D0B683E7340A0F381E0C81AA8
:1024C000D108E108F108C851DC4FECCFDF91CF9182
:1024D000FF90EF90DF90CF900895789484B582605C
:1024E00084BD84B5816084BD85B5826085BD85B5B8
:1024F000816085BDEEE6F0E0808181608083E1E867
:10250000F0E010828081826080838081816080839E
:10251000E0E8F0E0808181608083E1EBF0E08081A1
:1025200084608083E0EBF0E0808181608083E1E97A
:10253000F0E0808182608083808181608083E0E937
:10254000F0E0808181608083E1EAF0E08081826058
:102550008083808181608083E0EAF0E08081816017
:102560008083E1E2F1E0808182608083808181600C
:102570008083E0E2F1E0808181608083EAE7F0E03F
:10258000808184608083808182608083808181609B
:1025900080838081806880831092C10008950C94AC
:1025A0003F1808950E946D120E944B02CFE5D4E1BE
:1025B0000E944F022097E1F30E945F14F9CFFC01C3
:1025C00024853585F901E05CFF4F80819181F90117
:1025D000EE5BFF4F20813181821B930B8F73992714
:1025E0000895FC0184859585FC01E05CFF4F4081E6
:1025F0005181FC01EE5BFF4F20813181421753076F
:1026000041F00190F081E02DE80FF91F808190E00A
:1026100008958FEF9FEF0895FC0184859585FC0157
:10262000E05CFF4F40815181FC01EE5BFF4F208158
:1026300031814217530779F0A081B181A80FB91FEA
:102640008C91208131812F5F3F4F2F73332731834E
:10265000208390E008958FEF9FEF0895FC0181A102
:10266000882329F0A489B5898C9186FFFBCF11A21C
:102670000895CF93DF93FC0126853785D901A05CAF
:10268000BF4F8D919C91119701968F739927E90106
:10269000CE5BDF4F4881598184179507D9F30D90A0
:1026A000BC91A02DA20FB31F6C93A685B785A05C2B
:1026B000BF4F11969C938E93A689B7892C9181E088
:1026C00090E0078C02C0880F991F0A94E2F7282B2C
:1026D0002C9381E081A30488F589E02D80818064BA
:1026E000808381E090E0DF91CF910895FB01E05C71
:1026F000FF4F208131812F5F3F4F2F733327DB0145
:10270000AE5BBF4F4D915C912417350739F0A08126
:10271000B181A60FB71F8C9331832083089508954C
:102720001F920F920FB60F9211240BB60F922F9398
:102730003F934F935F936F937F938F939F93AF9349
:10274000BF93EF93FF938091C00082FD07C08091FB
:10275000C6006EE376E00E94761302C08091C60048
:10276000FF91EF91BF91AF919F918F917F916F9169
:102770005F914F913F912F910F900BBE0F900FBE25
:102780000F901F90189508951F920F920FB60F92F9
:1027900011240BB60F922F933F934F935F936F9338
:1027A0007F938F939F93AF93BF93EF93FF9380910A
:1027B000C80082FD07C08091CE0066EB75E00E94E4
:1027C000761302C08091CE00FF91EF91BF91AF913F
:1027D0009F918F917F916F915F914F913F912F9139
:1027E0000F900BBE0F900FBE0F901F90189508957D
:1027F0001F920F920FB60F9211240BB60F922F93C8
:102800003F934F935F936F937F938F939F93AF9378
:10281000BF93EF93FF938091D00082FD07C080911A
:10282000D6006EE275E00E94761302C08091D60059
:10283000FF91EF91BF91AF919F918F917F916F9198
:102840005F914F913F912F910F900BBE0F900FBE54
:102850000F901F90189508951F920F920FB60F9228
:1028600011240BB60F922F933F934F935F936F9367
:102870007F938F939F93AF93BF93EF93FF93809139
:10288000300182FD07C08091360166EA74E00E9443
:10289000761302C080913601FF91EF91BF91AF9105
:1028A0009F918F917F916F915F914F913F912F9168
:1028B0000F900BBE0F900FBE0F901F90189580E4E5
:1028C00094E00E94DF12892B11F00E948F138EE199
:1028D00094E00E94DF12892B11F00E94C3138CEF49
:1028E00093E00E94DF12892B11F00E94F7138AED0A
:1028F00093E00E94DF12892B11F00C942B140895A1
:102900001F920F920FB60F9211240BB60F922F93B6
:102910003F938F939F93EF93FF9320913A063091CB
:102920003B0680913C0690913D062817390731F40B
:102930008091C1008F7D8093C10014C0E0913C065E
:10294000F0913D06E650FA4F208180913C0690912F
:102950003D0601968F73992790933D0680933C0620
:102960002093C600FF91EF919F918F913F912F91FE
:102970000F900BBE0F900FBE0F901F9018951F92D7
:102980000F920FB60F9211240BB60F922F933F9315
:102990008F939F93EF93FF932091B2053091B305EE
:1029A0008091B4059091B5052817390731F48091CD
:1029B000C9008F7D8093C90014C0E091B405F091E7
:1029C000B505EE58FA4F20818091B4059091B50578
:1029D00001968F7399279093B5058093B405209342
:1029E000CE00FF91EF919F918F913F912F910F908A
:1029F0000BBE0F900FBE0F901F9018951F920F9255
:102A00000FB60F9211240BB60F922F933F938F9313
:102A10009F93EF93FF9320912A0530912B0580918E
:102A20002C0590912D052817390731F48091D1009C
:102A30008F7D8093D10014C0E0912C05F0912D057D
:102A4000E651FB4F208180912C0590912D05019638
:102A50008F73992790932D0580932C052093D60092
:102A6000FF91EF919F918F913F912F910F900BBE0E
:102A70000F900FBE0F901F9018951F920F920FB6D8
:102A80000F9211240BB60F922F933F938F939F9326
:102A9000EF93FF932091A2043091A3048091A404AA
:102AA0009091A5042817390731F4809131018F7D69
:102AB0008093310114C0E091A404F091A504EE5973
:102AC000FB4F20818091A4049091A50401968F73FF
:102AD00099279093A5048093A40420933601FF9135
:102AE000EF919F918F913F912F910F900BBE0F907F
:102AF0000FBE0F901F901895CF92DF92EF92FF922A
:102B0000CF93DF93EC016A017B01411581EE5807F9
:102B100061057105F9F0EC89FD8981E090E008A07C
:102B200002C0880F991F0A94E2F7808360E079E081
:102B30008DE390E0A70196010E941D1B21503109F1
:102B4000410951095695479537952795211580E1FB
:102B5000380798F0EC89FD89108260E874E88EE10E
:102B600090E0A70196010E941D1B215031094109E7
:102B700051095695479537952795E889F989308306
:102B8000EA89FB89208319A2EE89FF89408181E0CF
:102B900090E09C010C8C02C0220F331F0A94E2F7D4
:102BA000422B4083EE89FF8940819C010D8C02C03D
:102BB000220F331F0A94E2F7422B4083EE89FF89EC
:102BC00040819C010E8C02C0220F331F0A94E2F751
:102BD000422B4083EE89FF8920810F8C02C0880F31
:102BE000991F0A94E2F7809582238083DF91CF9129
:102BF000FF90EF90DF90CF90089581E00895CF93FC
:102C0000109243041092420488EE93E0A0E0B0E0FA
:102C10008093440490934504A0934604B0934704E2
:102C200024E932E030934104209340044EE356E01F
:102C300050934D0440934C044AEF55E050934F0499
:102C400040934E0445EC50E050935104409350049F
:102C500044EC50E0509353044093520440EC50E055
:102C6000509355044093540441EC50E05093570462
:102C70004093560442EC50E050935904409358045A
:102C800046EC50E050935B0440935A04C4E0C09378
:102C90005C04F3E0F0935D04E7E0E0935E0475E02C
:102CA00070935F0461E060936004109221041092BD
:102CB00020048093220490932304A0932404B093CF
:102CC000250430931F0420931E0446EB55E05093D7
:102CD0002B0440932A0442E755E050932D0440937F
:102CE0002C044DEC50E050932F0440932E044CECF8
:102CF00050E0509331044093300448EC50E050933E
:102D000033044093320449EC50E05093350440932F
:102D100034044AEC50E050933704409336044EECB0
:102D200050E05093390440933804C0933A04F09330
:102D30003B04E0933C0470933D0460933E04109286
:102D4000FF031092FE038093000490930104A0936C
:102D50000204B09303043093FD032093FC034EE27E
:102D600055E050930904409308044AEE54E0509310
:102D70000B0440930A0445ED50E050930D0440933A
:102D80000C0444ED50E050930F0440930E0440EDCA
:102D900050E0509311044093100441ED50E05093E3
:102DA00013044093120442ED50E0509315044093F5
:102DB000140446ED50E05093170440931604C0935A
:102DC0001804F0931904E0931A0470931B046093A1
:102DD0001C041092DD031092DC038093DE039093B9
:102DE000DF03A093E003B093E1033093DB03209370
:102DF000DA0386EA94E09093E7038093E60382E6A1
:102E000094E09093E9038093E80385E391E0909345
:102E1000EB038093EA0384E391E09093ED038093C6
:102E2000EC0380E391E09093EF038093EE0381E362
:102E300091E09093F1038093F00382E391E090930B
:102E4000F3038093F20386E391E09093F50380937C
:102E5000F403C093F603F093F703E093F803709341
:102E6000F9036093FA03CF910895CF92DF92EF9226
:102E7000FF920F931F93CF93DF936C017A01EB01C5
:102E8000E60EF71E00E010E0CE15DF0561F0699157
:102E9000D601ED91FC910190F081E02DC6011995CC
:102EA000080F191FF1CFC801DF91CF911F910F912A
:102EB000FF90EF90DF90CF9008956115710581F03C
:102EC000DB010D900020E9F7AD0141505109461B8F
:102ED000570BDC01ED91FC910280F381E02D1994F8
:102EE00080E090E008950C945D17DC01ED91FC9179
:102EF0000190F081E02D19940F931F93CF93DF93EE
:102F0000EC016DE00E9475178C016AE0CE010E9411
:102F10007517800F911FDF91CF911F910F91089529
:102F20000F931F93CF93DF93EC010E945D178C01E9
:102F3000CE010E947C17800F911FDF91CF911F91CE
:102F40000F91089570E09B01382BC9010895CF932C
:102F5000DF938230910510F482E090E0E0918406E6
:102F6000F091850620E030E0A0E0B0E0309739F144
:102F70004081518148175907B8F04817590771F433
:102F800082819381109729F013969C938E931297C8
:102F90002CC0909385068093840627C021153105A7
:102FA00031F04217530718F0A901DB0101C0EF010E
:102FB0009A01BD01DF010280F381E02DD7CF2115F9
:102FC0003105F9F0281B390B2430310580F48A8152
:102FD0009B816115710521F0FB019383828304C0FD
:102FE0009093850680938406FE01329644C0FE01CC
:102FF000E20FF31F81939193225031093983288383
:103000003AC02091820630918306232B41F420910F
:1030100006023091070230938306209382062091A6
:103020000402309105022115310541F42DB73EB758
:103030004091080250910902241B350BE091820651
:10304000F0918306E217F307A0F42E1B3F0B28171D
:10305000390778F0AC014E5F5F4F2417350748F011
:103060004E0F5F1F50938306409382068193919386
:1030700002C0E0E0F0E0CF01DF91CF910895CF935F
:10308000DF93009709F487C0FC0132971382128204
:10309000C0918406D0918506209781F420813181EA
:1030A000280F391F8091820690918306821793071B
:1030B00079F5F0938306E09382066DC0DE0120E08F
:1030C00030E0AE17BF0750F412964D915C91139704
:1030D0009D014115510509F1DA01F3CFB383A283B4
:1030E00040815181840F951F8A179B0771F48D9140
:1030F0009C911197840F951F02969183808312965D
:103100008D919C911397938382832115310529F426
:10311000F0938506E09384063EC0D9011396FC9394
:10312000EE9312974D915D91A40FB51FEA17FB071F
:1031300079F480819181840F951F0296D9011196AF
:103140009C938E938281938113969C938E93129776
:10315000E0E0F0E08A819B81009719F0FE01EC012C
:10316000F9CFCE01029628813981820F931F2091D9
:103170008206309183062817390769F4309729F4BD
:10318000109285061092840602C013821282D09398
:103190008306C0938206DF91CF9108955058BB27D4
:1031A000AA270ED0A3C194D130F099D120F031F4E8
:1031B0009F3F11F41EF464C10EF4E095E7FB5AC181
:1031C000E92FA5D180F3BA17620773078407950723
:1031D00018F071F49EF5BDC10EF4E0950B2EBA2FD8
:1031E000A02D0B01B90190010C01CA01A00111240D
:1031F000FF27591B99F0593F50F4503E68F11A16B9
:10320000F040A22F232F342F4427585FF3CF469549
:1032100037952795A795F0405395C9F77EF41F166B
:10322000BA0B620B730B840BBAF09150A1F0FF0F35
:10323000BB1F661F771F881FC2F70EC0BA0F621F21
:10324000731F841F48F4879577956795B795F79511
:103250009E3F08F0B3CF9395880F08F09927EE0FA3
:1032600097958795089534D158F080E891E009F456
:103270009EEF35D128F040E851E059F45EEF09C0E7
:10328000FFC067C1E92FE07842D168F3092E052A13
:10329000C1F3261737074807590738F00E2E07F8ED
:1032A000E02569F0E025E0640AC0EF6307F80094C8
:1032B00007FADB01B9019D01DC01CA01AD01EF9301
:1032C00043D014D10AD05F91552331F02BED3FE06C
:1032D00049E450FD49EC63CF0895DF93DD27B92F12
:1032E000BF7740E85FE31616170648075B0710F440
:1032F000D92F36D19F938F937F936F939BD1E4EE19
:10330000F0E0C1D0F3D02F913F914F915F913BD12D
:10331000DD2349F09058A2EA2AED3FE049EC5FE353
:10332000D0785D274DDFDF91E1C00CD0DFC0D7D072
:1033300040F0CED030F021F45F3F19F09BC0511126
:1033400009C19EC0E4D098F39923C9F35523B1F382
:10335000951B550BBB27AA2762177307840738F004
:103360009F5F5F4F220F331F441FAA1FA9F333D063
:103370000E2E3AF0E0E830D091505040E695001C17
:10338000CAF729D0FE2F27D0660F771F881FBB1FD3
:10339000261737074807AB07B0E809F0BB0B802DAD
:1033A000BF01FF2793585F4F2AF09E3F510568F0F9
:1033B00061C0D0C05F3FECF3983EDCF38695779513
:1033C0006795B795F7959F5FC9F7880F911D9695FB
:1033D000879597F90895E1E0660F771F881FBB1F57
:1033E000621773078407BA0720F0621B730B840B04
:1033F000BA0BEE1F88F7E0950895E89409C097FB93
:103400003EF490958095709561957F4F8F4F9F4FBB
:103410009923A9F0F92F96E9BB279395F6958795FF
:1034200077956795B795F111F8CFFAF4BB0F11F4C2
:1034300060FF1BC06F5F7F4F8F4F9F4F16C0882369
:1034400011F096E911C0772321F09EE8872F762F9F
:1034500005C0662371F096E8862F70E060E02AF0E0
:103460009A95660F771F881FDAF7880F96958795CC
:1034700097F9089597F99F6780E870E060E00895F4
:103480009FEF80EC0895DF93CF931F930F93FF92EC
:10349000EF92DF927B018C01689405C0DA2EEF0178
:1034A00072D0FE01E894A5912591359145915591F1
:1034B000AEF3EF0185DEFE019701A801DA9479F7FA
:1034C000DF90EF90FF900F911F91CF91DF910895C2
:1034D00000240A94161617061806090608950024F3
:1034E0000A9412161306140605060895092E03946D
:1034F000000C11F4882352F0BB0F40F4BF2B11F4E1
:1035000060FF04C06F5F7F4F8F4F9F4F089557FD3F
:103510009058440F551F59F05F3F71F04795880F41
:1035200097FB991F61F09F3F79F0879508951216D8
:1035300013061406551FF2CF4695F1DF08C0161684
:1035400017061806991FF1CF869571056105089435
:103550000895E894BB2766277727CB0197F908954C
:103560009B01AC0160E070E080E89FE3DECE0BD011
:10357000BDCFAEDF28F0B3DF18F0952309F07ACF86
:103580007FCF1124E7CFC3DFA0F3959FD1F3950F31
:1035900050E0551F629FF001729FBB27F00DB11DD7
:1035A000639FAA27F00DB11DAA1F649F6627B00D67
:1035B000A11D661F829F2227B00DA11D621F739F50
:1035C000B00DA11D621F839FA00D611D221F749F5E
:1035D0003327A00D611D231F849F600D211D822FA5
:1035E000762F6A2F11249F5750408AF0E1F08823EC
:1035F0004AF0EE0FFF1FBB1F661F771F881F9150F9
:103600005040A9F79E3F510570F034CFA3CF5F3FE4
:10361000ECF3983EDCF3869577956795B795F7952B
:10362000E7959F5FC1F7FE2B880F911D96958795B3
:1036300097F908959B01AC019ACFA1E21A2EAA1B1B
:10364000BB1BFD010DC0AA1FBB1FEE1FFF1FA21752
:10365000B307E407F50720F0A21BB30BE40BF50B4F
:10366000661F771F881F991F1A9469F760957095D8
:10367000809590959B01AC01BD01CF010895079005
:10368000F691E02D19940F931F93CF93DF93869FAC
:103690008001879F100D969F100D1124C8010E9474
:1036A000A717EC01009729F0A80160E070E00E94E4
:1036B0005F1BCE01DF91CF911F910F910895DC0127
:1036C00001C06D9341505040E0F70895F894FFCF4A
:1036D0000100000000008606800053656E642044EF
:1036E000617461000100020000000200000001009E
:1036F00000000100020003000C000D000E000F008E
:10370000080009000A000B0004000500000000008A
:10371000AB010F02BD0191013C0139014661696CA9
:10372000656420746F207374617274205553420075
:1037300000000000D112D112D112D112D112D11237
:10374000000000008B041604960A000000004F10D1
:10375000DE0CFB0C3C0FE30CE00CE90CE10CE60C7E
:103760000000000039133517DF120C13F1122E136D
:00000001FF
