:100000000C9404010C9435010C9435010C943501C9
:100010000C9435010C9435010C9435010C94350188
:100020000C9435010C9435010C9435010C94350178
:100030000C9435010C9435010C9435010C94350168
:100040000C9435010C9435010C9435010C94350158
:100050000C9435010C9435010C9435010C9421114C
:100060000C9435010C94E3120C94D3130C943501C9
:100070000C9435010C9435010C9435010C94350128
:100080000C9435010C9435010C9435010C94350118
:100090000C9417130C9412140C9435010C94350124
:1000A0000C9435010C9435010C9435010C943501F8
:1000B0000C9435010C9435010C9435010C943501E8
:1000C0000C9435010C9435010C9435010C944B13B0
:1000D0000C9451140C9435010C947F130C949014CF
:1000E0000C943501084AD73B3BCE016E84BCBFFD62
:1000F000C12F3D6C74319ABD56833DDA3D00C77FF8
:1001000011BED9E4BB4C3E916BAAAABE0000008090
:100110003F100000002000000040000000800000B0
:1001200000010000000800000002000000040000C0
:1001300000000100000002000000040000000800B0
:1001400000001000000020000000400000008000BF
:100150000000000100000008000000100000010283
:100160000408090A0C0D0E0F00000000000000003A
:100170000000FF27100032FF27100032FF27100079
:1001800032FF2710003200000000000000000000D5
:1001900000000000000000000C9485010C94310C5C
:1001A0000C9452150C94330C0C943A010C94A20F3D
:1001B0000C944E0C0C94E9090C948C120C94360C93
:1001C0000C9444120C94340C0C9424120C944C0196
:1001D0000C9469030C9488160C94390C0C943C0C08
:1001E0000C945F120C9423020C9432120C94811222
:1001F0000C94DE030C94C1010C948F0E0C94370107
:100200000C94B2132302521511241FBECFEFD1E27A
:10021000DEBFCDBF00E00CBF12E0A0E0B2E0ECE634
:10022000F5E300E00BBF02C007900D92A839B107BB
:10023000D9F716E0A8E9B2E001C01D92AE37B107C8
:10024000E1F712E0C8E0D2E000E006C02297010921
:10025000FE010BBF0E948D1AC430D10780E0080751
:10026000A9F70E9425120C94B41A0C940000FC010A
:1002700080850895CF93DF93EC018A819B810E9452
:10028000320BEC81FD818281811102C0848101C029
:1002900081E0DF91CF910895CF92DF92EF92FF92AC
:1002A0000F931F93CF93DF938C0161E070E08EE09A
:1002B00090E00E94911A6C01D801ED91FC9101909F
:1002C000F081E02DC80119958823A9F08BE1E82E73
:1002D00082E0F82ECC2DDD2DD7016D917D917D0131
:1002E000F801848195810E94D40C8993F7E3EF167D
:1002F000F2E0FF0689F7C601DF91CF911F910F91C0
:10030000FF90EF90DF90CF900895CF92DF92EF9221
:10031000FF920F931F93CF93DF938C0164E070E003
:1003200082E090E00E94911A6C01D801ED91FC915D
:100330000190F081E02DC80119958823C1F09FE05C
:10034000E92E92E0F92ECC2DDD2DD7016D917D9116
:100350007D01F801848195810E940F0D6993799345
:1003600089939993FBE2EF16F2E0FF0671F7C6015D
:10037000DF91CF911F910F91FF90EF90DF90CF9081
:100380000895CF92DF92EF92FF920F931F93CF9336
:10039000DF938C0161E070E084E090E00E94911AAC
:1003A0006C01D801ED91FC910190F081E02DC80124
:1003B00019958823C1F023E1E22E22E0F22ECC2D04
:1003C000DD2DD7016D917D917D01F80184819581AD
:1003D0000E940A0D282F30E029933993FBE1EF1694
:1003E000F2E0FF0671F7C601DF91CF911F910F91E7
:1003F000FF90EF90DF90CF90089588E992E00C9401
:10040000FA02CF93DF938BE493E00E94320B88E9EA
:1004100092E00E944C01EC018881882331F066E073
:1004200072E088E394E00E94E3168981882331F02A
:1004300069E072E088E394E00E94E316CE01DF9168
:10044000CF910C942212AF92CF92EF920F938BE444
:1004500093E00E941B03A12CC12CE12C00E020E0C2
:1004600040E06BE473E081EA92E00E94640C6BE48C
:1004700073E088E992E00E945A028BE392E0909345
:1004800099028093980281EA92E090939D02809372
:100490009C0262E070E085E090E00E94911A9093E7
:1004A0009F0280939E021092A0020F91EF90CF9036
:1004B000AF9008952DE532E0FC01318320837383F2
:1004C00062830895289A089528988EBD0DB407FE7A
:1004D000FDCF1EBC0DB407FEFDCF0E9462028EB59B
:1004E0000895289882608EBD0DB407FEFDCF6EBDC5
:1004F0000DB407FEFDCF0C94620288EF0E946402E7
:10050000807C8034A1F018F4882301F108958038AC
:1005100019F0803CB9F0089588ED0E94640281FDD5
:100520000BC069EC88ED0E94710282E00CC088ED7E
:100530000E94640281FDF5CF6BEC88ED0E94710290
:1005400083E001C081E08093C203089561ED88EDEE
:100550000E9471021092C20308950F931F93CF93CC
:10056000DF938C01209A0E946202219A229A23989A
:10057000209A80E58CBD81E08DBD6E9868E188E8A9
:100580000E94710260E288E70E94710260E088E7E1
:100590000E947102C0E0D0E088E60E9464022196C9
:1005A00080FD06C0CF3F8FEFD807B1F78FEF1DC09A
:1005B00061EC88ED0E94710260E680ED0E9471029C
:1005C00064E088EE0E94710288EE0E94640282FF5D
:1005D000FBCFC8010E947D0260E288EC0E9471029C
:1005E00061E080E80E94710280E0DF91CF911F916D
:1005F0000F910895CF93DF93EC0140E855E260E05E
:1006000070E088E394E00E94CF1488E394E00E94B5
:1006100050158823D1F38A819B810E94AD028F3FC0
:1006200039F465E472E088E394E00E94C616FFCFD7
:10063000DF91CF910895FC01809104018460809343
:100640000401809105018460809305018BE692E0AE
:10065000918380831582108681E0818712869F01B5
:100660002E5F3F4F37832683128288E083838CE39B
:10067000848380E090E041E0DF01A80FB91F1D9660
:100680001C921D971E964C931E971F961C921F97A7
:100690001C963C932E931B9705968B34910561F71E
:1006A000EA58FF4F108281E18093C703089520E04C
:1006B00030E041E0FC01E20FF31F5585561739F099
:1006C0004F5F2B5F3F4F4031A9F780E00895842FA3
:1006D0000895EF92FF921F93CF93DF931F921F9283
:1006E000CDB7DEB77C01162F67FD5FC0283008F05C
:1006F0005CC0442331F0DC0115968C91873009F4FD
:1007000054C060E0C7012A8349830E9457032A81AD
:100710004981882309F449C0E82FF0E0111123C072
:1007200085E08E9FD0018F9FB00D1124AE0DBF1DAF
:10073000442359F081E418968C93D70115968C9137
:1007400015978F5F15968C9303C081E018968C9354
:1007500085E08E9FD0018F9FB00D1124AE0DBF1D7F
:1007600018968C9123C0612F6770660F660F660F15
:10077000442361F06064D70115968C9115978F5FC3
:1007800015968C938770687F682B03C02770687BF1
:10079000622B85E08E9FD0018F9FB00D1124AE0D8E
:1007A000BF1D18966C93862F01C080E00F900F90AC
:1007B000DF91CF911F91FF90EF900895CF93DF933A
:1007C000EC01611102C006960FC00E9457038823F6
:1007D00049F09E0145E0849F200D311D1124C9017F
:1007E000069602C080E090E0DF91CF910895CF930C
:1007F000DF931F92CDB7DEB749830E94DE034981A4
:10080000009789F0DC01ED91FC911197309759F038
:1008100013969C9180E0891731F02081241731F0E4
:1008200033968F5FF8CF80E090E001C0CF010F904A
:10083000DF91CF910895EF92FF921F93CF93DF93B3
:100840001F92CDB7DEB7162F79012115310569F05A
:1008500049830E94DE03FC014981009741F0128325
:10086000F182E082438380E003C088ED01C086ED21
:100870000F90DF91CF911F91FF90EF9008952898EE
:100880000895CF93DF931F92CDB7DEB789830E947F
:100890003F0489818EBD0DB407FEFDCF1EBC0DB493
:1008A00007FEFDCF0E9462028EB50F90DF91CF91BF
:1008B0000895CF93DF931F921F92CDB7DEB76A835F
:1008C00089830E943F04898182608EBD6A810DB454
:1008D00007FEFDCF6EBD0DB407FEFDCF0F900F904C
:1008E000DF91CF910C9462028F929F92BF92CF9230
:1008F000DF92EF92FF920F931F93CF93DF931F929C
:10090000CDB7DEB74C01B62E690149830E94DE03E4
:100910007C014981009709F443C0FC0180819181E9
:10092000892B09F43FC06B2DC4010E94F703F60127
:10093000918380830097C1F1FC0122812695269541
:10094000822F90E0409764F441E050E060E070E076
:1009500004C0440F551F661F771F2A95D2F702C0A7
:1009600040E050E841505109F801518340836B2D1C
:1009700080EE0E94590488ED0E944104F7019481A1
:10098000992339F0F401EA58FF4F60816260682BC7
:1009900002C0682F697F88ED0E94590480E005C07D
:1009A00086ED03C087ED01C08BED0F90DF91CF91F5
:1009B0001F910F91FF90EF90DF90CF90BF909F908D
:1009C0008F9008958F929F92AF92BF92CF92DF92B5
:1009D000EF92FF920F931F93CF93DF931F92CDB7A8
:1009E000DEB7A62E890149830E946B116B017C0141
:1009F00080E1C80E87E2D81EE11CF11C812C912CED
:100A0000B12C20E04981A42A29830E946B112981FD
:100A10006C157D058E059F0560F56A2D80EF0E949F
:100A200059040E946B116C157D058E059F0548F4D5
:100A300088EC0E94410487FFF4CF60E888EC0E94B4
:100A4000590488EF0E944104282F2F70243019F098
:100A50002E3059F00EC0EFEF8E1A9E0A01151105C7
:100A600099F28016910681F604C0B394F3E0BF12A8
:100A7000CBCF822F0F90DF91CF911F910F91FF90DD
:100A8000EF90DF90CF90BF90AF909F908F900895A0
:100A90009F92AF92BF92CF92DF92EF92FF920F930D
:100AA0001F93CF93DF937C01B42E122FAA24A3941B
:100AB000DC01A60FB11DA60FB11D6D0186E5C80EA4
:100AC000D11CC42FD0E0AB96CC0FDD1FCE0DDF1DA7
:100AD000D6018D919C91DC01ED91FC910280F38116
:100AE000E02D202F412F6B2D1995803EC1F4B110C0
:100AF0000BC061E088EE0E94590466E670E080E079
:100B000090E00E949A1115C088819981DC01ED91D5
:100B1000FC910284F385E02D612F19950AC08D3078
:100B200031F48FEF8A0D833008F042C017C0811175
:100B300042C0F60180819181DC01ED91FC91019030
:100B4000F081E02D202F412F6B2D1995982EBDE0BF
:100B50008B130CC08FEF8A0D833050F464E670E085
:100B600080E090E00E949A11A394B2CF882311F103
:100B7000B1100BC061E088EE0E94590466E670E097
:100B800080E090E00E949A1111C0EB2DF0E0BB963E
:100B9000EE0FFF1FEE0DFF1D80819181DC01ED91B5
:100BA000FC910284F385E02D612F1995892D03C0F6
:100BB0008DE001C080E0DF91CF911F910F91FF90F8
:100BC000EF90DF90CF90BF90AF909F9008950F93DC
:100BD0001F93CF93DF931F921F92CDB7DEB78A0189
:100BE0006A8389830E943F04898182608EBDF801F7
:100BF0006A81862F882339F00DB407FEFDCF9191CD
:100C00009EBD8150F7CF060F111D0DB407FEFDCF1D
:100C10000E946202C8010F900F90DF91CF911F9147
:100C20000F9108952F923F924F925F926F927F9211
:100C30008F929F92AF92BF92CF92DF92EF92FF92EC
:100C40000F931F93CF93DF9300D01F921F92CDB7C6
:100C5000DEB77D836C835A016901FB0121808FEF30
:100C6000820D803408F06FC00E946B112B013C0193
:100C7000F0E14F0EF7E25F1E611C711CEC81FD81FB
:100C8000828180FF02C060E801C060E488EE0E94BB
:100C9000590420E0312CC114D10409F444C0760178
:100CA0002C143D0408F47101EA82A8016E2D80E144
:100CB0000E94E7056E2D88E30E945904EC81FD81B6
:100CC0006081606280EF0E94590488EC0E944104B8
:100CD00087FFFBCF60E888EC0E94590488EF0E94F0
:100CE0004104282F2F70812C912C1982222309F482
:100CF0006BC02B830E946B112B81641575058605D3
:100D0000970508F061C0263001F12E3009F456C075
:100D1000243049F4FFEF8F1A9F0AA114B10459F14E
:100D20008A149B0441F588EF2B830E94410485FBC4
:100D3000882780F9EC81FD81928180FB90F9928374
:100D40002B81822F46C08AED44C088EF0E94410467
:100D500085FB882780F991E08927EC81FD819281CC
:100D600080FB90F9928390FF02C060E801C060E4CC
:100D700088EE0E94590460E088E30E945904F8015B
:100D8000608180E10E9459046A8188E30E945904CD
:100D9000EC81FD816081606280EF0E94590488ECE3
:100DA0000E94410487FFFBCF60E888EC0E94590451
:100DB00088EF0E944104282F2F7098CF89818F5F80
:100DC00089838330C1F6AFCFCE18DF080E0D1F1D0B
:100DD00062CF0F900F900F900F900F90DF91CF91F7
:100DE0001F910F91FF90EF90DF90CF90BF90AF9049
:100DF0009F908F907F906F905F904F903F902F903B
:100E00000895AF92BF92CF92DF92EF92FF920F932D
:100E10001F93CF93DF9300D01F92CDB7DEB77C0135
:100E2000690158011C821B821A8219828E010F5F90
:100E30001F4F9E012D5F3F4F0E947404811109C016
:100E400049815A816B817C8185019601C7010E948D
:100E500012060F900F900F900F90DF91CF911F917E
:100E60000F91FF90EF90DF90CF90BF90AF900895DB
:100E70002F923F924F925F926F927F928F929F92AA
:100E8000AF92BF92CF92DF92EF92FF920F931F9398
:100E9000CF93DF9300D01F92CDB7DEB75C017C8388
:100EA0006B834A017901F901C080D180FB01418047
:100EB000F90111821082FB01828181FF02C060E290
:100EC00001C060E188EE0E9459043C2C9401EB8142
:100ED000FC81408160E0C5010E94E204582EF6E0EA
:100EE0008F1317C088EF0E94410485FB882780F983
:100EF00091E08927EB81FC81928180FB91F99283BB
:100F000091FF02C060E201C060E188EE0E945904D6
:100F1000DDCF81115AC088EC0E94410482FF53C08A
:100F200080E30E944104282E282F30E0C216D30609
:100F300008F4232CF70120813181622C712CA60149
:100F4000421B530B57FF02C040E050E0930146158F
:100F500057050CF49A0129833A830E943F04F8E074
:100F6000FEBD3A8129810DB407FEFDCFF801822F25
:100F7000800F8E1739F01EBC0DB407FEFDCF4EB5A5
:100F80004193F7CF020F131F0E94620264E088ECC6
:100F90000E945904F70120813181260D371D3183CC
:100FA0002083241420F02C153D0508F48FCF88EF02
:100FB0000E94410482958170EB81FC81928180FBCB
:100FC00091F9928302C030EF532E852D0F900F9030
:100FD0000F900F90DF91CF911F910F91FF90EF90A5
:100FE000DF90CF90BF90AF909F908F907F906F9049
:100FF0005F904F903F902F9008952F923F924F9285
:101000005F926F927F928F929F92AF92BF92CF9298
:10101000DF92EF92FF920F931F93CF93DF93CDB7A1
:10102000DEB762970FB6F894DEBF0FBECDBF3C01AE
:10103000542ED22E402E5E2D28A439A4EAA4FBA45F
:10104000188A1F861E861D868E01035F1F4F9E0114
:10105000215F3F4F598B0E9474045989811193C0BD
:10106000D9824A825B83CC82BE82AD8298868F828F
:10107000AE014F5F5F4F68E080E20E94E7052D857B
:101080003E85452D60E1C3010E94E204182F8111C5
:1010900079C0BD2CBB1CBB24BB1CE114F10409F4BA
:1010A00065C0EF85F8898281BB2009F452C0826057
:1010B00082836401AA24A394C114D10409F454C006
:1010C0003C862B864D855E856F85788987019E01DC
:1010D000255F3F4FC3010E943807182F8630B1F4B7
:1010E0002F85388988EF298B3A8B0E94410485FB34
:1010F000882780F98A2529893A89D90112969C91F5
:10110000129780FB91F912969C93D6CF81113AC029
:10111000ECA5FDA53097A1F00190F081E02D0190A4
:10112000F081E02DC4018C199D099A8789876B8510
:101130007C859E01275F3F4FA7018CA59DA5199532
:101140008B859C85C81AD90A8215930508F0B4CFFF
:101150000DC0816082834D855E8587019101BF014D
:10116000C3010E941206182F11110CC02D853E8557
:10117000BB2011F060EA01C060E8452DC3010E9468
:10118000E20401C0812F62960FB6F894DEBF0FBE55
:10119000CDBFDF91CF911F910F91FF90EF90DF9026
:1011A000CF90BF90AF909F908F907F906F905F9007
:1011B0004F903F902F9008958F929F92AF92BF9241
:1011C000CF92EF920F931F931F921F921F930F9333
:1011D0003F932F934901A12CB12CCC24C394E12C33
:1011E00006E020E80E94FD070F900F900F900F90EF
:1011F0000F900F901F910F91EF90CF90BF90AF90F5
:101200009F908F9008958F929F92AF92BF92CF92AE
:10121000EF920F93CF931F921F921F921F921F92D4
:101220001F92812C912CA12CB12CC12CE22E05E017
:1012300020E00E94FD07C82F6CE271E080E090E0A2
:101240000E949A110F900F900F900F900F900F9097
:101250008C2FCF910F91EF90CF90BF90AF909F9038
:101260008F9008958F929F92AF92BF92CF92EF92FC
:101270000F931F921F921F921F921F921F92812CF9
:10128000912CA12CB12CC12CE22E09E020E00E946F
:10129000FD070F900F900F900F900F900F900F91F0
:1012A000EF90CF90BF90AF909F908F900895AF92A6
:1012B000BF92CF92DF92EF92FF920F931F93CF9343
:1012C000DF9300D01F92CDB7DEB77C0169015801D2
:1012D0001C821B821A8219828E010F5F1F4F9E0192
:1012E0002D5F3F4F0E947404811109C049815A81CA
:1012F0006B817C8185019601C7010E9438070F90A0
:101300000F900F900F90DF91CF911F910F91FF9051
:10131000EF90DF90CF90BF90AF900895CF92DF9283
:10132000FF920F931F93CF93DF931F921F92CDB71E
:10133000DEB76C01662309F442C0062F10E085E099
:10134000689FB0011124F601E60FF71F8085282F52
:10135000277086FF19C031E0E5E0FE2EF601F39E0E
:10136000E00DF11D11248085869586958695877000
:101370008217E1F03F5F303188F3F60185818213F7
:1013800003C02150F601258385E0809FF001819FF5
:10139000F00D1124EC0DFD1D108681E08187128671
:1013A00082E0C80ED11CD782C68209C0632FC60155
:1013B0002A8339830E948E092A813981CFCF0F90E9
:1013C0000F90DF91CF911F910F91FF90DF90CF9001
:1013D0000895CF93DF93EC016134A1F4FC01855BA8
:1013E0009F4F41E09E012E5F3F4F1586468717862F
:1013F000348723873596E817F907B9F71D82DF91FF
:10140000CF9108950E945703682FCE01DF91CF91AD
:101410000C948E090F931F93CF93DF93EC01022F4F
:10142000CA3F8FEFD80711F486ED29C08E819F81C6
:10143000892B01F12A87242F40E0CE010E94690305
:10144000182F8823C9F0682FCE010E94DE03009771
:1014500059F3FC010483212F40E060E0CE010E949B
:101460000309082F882351F0612FCE010E94E9095A
:10147000802F05C087ED03C084ED01C080E0DF91BF
:10148000CF911F910F9108953F924F925F926F926B
:101490007F928F929F92AF92BF92CF92DF92EF9204
:1014A000FF920F931F93CF93DF93CDB7DEB765976E
:1014B0000FB6F894DEBF0FBECDBF7C01662E542E52
:1014C000722E1B8A88E08C8B8CE38D8BD701ED917B
:1014D000FC910190F081E02D60E0C70119956C014D
:1014E000009709F48FC0FC01A080B180CE01439623
:1014F0009183808374828E010F5F1F4F22E130E061
:1015000040E060E0C7010E94DC08D601AD92BC92C9
:10151000811190C0A984BA848B849C844D8067011A
:10152000312C86010A5A1F4FF80180819181009762
:1015300051F43394F2E0CF0ED11C80E13812F1CF98
:101540006701312C25C0DC01ED91FC910084F1850F
:10155000E02D19958111EDCFF80180819181DC0199
:10156000ED91FC910484F585E02DA401B501199558
:1015700081114AC0F80180819181DC01ED91FC91DB
:101580000684F785E02D642D199581113DC0D1CFDA
:1015900086010A5A1F4FF80180819181009721F13D
:1015A000DC01ED91FC910084F185E02D199581110C
:1015B0001BC0F80180819181DC01ED91FC910484D4
:1015C000F585E02DA401B501199581110DC0F80133
:1015D00080819181DC01ED91FC910684F785E02DFD
:1015E000642D19958823D9F03394B2E0CB0ED11C29
:1015F000E0E13E12CDCF272D452D662DC7010E947B
:101600000A0A18C086ED16C0072D252D462D632D1C
:10161000C7010E944805813D09F48BCF0BC0072DFF
:10162000252D462D632DC7010E944805982F977FD1
:10163000913DD1F265960FB6F894DEBF0FBECDBFD7
:10164000DF91CF911F910F91FF90EF90DF90CF909E
:10165000BF90AF909F908F907F906F905F904F90D2
:101660003F900895CF92DF92EF92FF921F93CF9316
:10167000DF93EC0166990EC088EC0E94410485FF5F
:1016800005C0CE010E947D0260E201C060E088ECEE
:101690000E9459048091C203813049F050F0823099
:1016A00021F0833031F511E00DC010E00BC083E173
:1016B00006C08091C703807F8031D9F081E180939B
:1016C000C70317C08091C703807F803199F40E94BF
:1016D0006B1168537F4F8F4F9F4F6093C30370937D
:1016E000C4038093C5039093C60380E28093C7032D
:1016F00001C010E0E12CF12CFE01EE0DFF1DEA5AB5
:10170000FF4F80819181009739F0DC01ED91FC91D0
:101710000680F781E02D1995B2E0EB0EF11C80E216
:10172000E816F10449F78091C703803409F448C0F2
:1017300070F4803279F18033E9F1813109F089C0A8
:10174000FE01EA58FF4F1082E12CF12C0AC08135CE
:1017500009F45CC0803809F46BC0803509F079C0A9
:101760003EC0FE01EE0DFF1DEA5AFF4F80819181C0
:10177000009739F0DC01ED91FC910480F581E02DBA
:101780001995B2E0EB0EF11C80E2E816F10449F77E
:1017900082E15DC0C090C303D090C403E090C50354
:1017A000F090C6030E946B11C616D706E806F9062C
:1017B00008F04FC061E088EE0E94590480E447C001
:1017C00088EE0E94410480FD44C088ED0E944104DF
:1017D000682F686088ED0E94590480E538C088EC65
:1017E0000E94410486FF35C081E58093C7030E94B3
:1017F0006B116C5E7F4F8F4F9F4F6093C30370934D
:10180000C4038093C5039093C60323C0C090C30351
:10181000D090C403E090C503F090C6030E946B1102
:10182000C616D706E806F906A0F480E88093C70339
:10183000212F40E060E0CE010E94440A882331F06D
:10184000823D39F08093C80380EA01C080E980932B
:10185000C703DF91CF911F91FF90EF90DF90CF9062
:10186000089580E00895089580E00895FC0187813F
:101870000895FC01838908956C34754069F44836F5
:1018800082E0580711F481E008954F3284E0580750
:10189000D1F3453D5340B9F380E00895CF93DF93F2
:1018A000EC011A821B821C828D819E81DC01ED91EC
:1018B000FC910480F581E02D6F8119951F821B8AB0
:1018C00080E0DF91CF910895AF92CF92EF920F9386
:1018D000CF93DF93FC0185E792E091838083768349
:1018E00065831782138A108688E081878CE382875C
:1018F0001386148684E0858716861786808B61158B
:101900007105C1F0CB01A0E0B0E0EC01CA5ADF4F95
:101910000990D881C02DCD2B41F49B96AA0FBB1FF7
:10192000A60FB71FED93FC9305C011960296A03148
:10193000B10559F741A720A707A3E6A2C5A2A4A213
:10194000DF91CF910F91EF90CF90AF9008950F93CB
:101950001F93FC0145A550E0542F442784A5482B34
:1019600060E070E086A5682B408F518F628F738F87
:10197000048D158D268D378D40175107620773072B
:1019800081F000951095209530950423152326238A
:10199000372300A311A322A333A3448F558F668F4F
:1019A000778F1F910F910895CF92DF92EF92FF9260
:1019B0000F931F937727660F771F660F771F6F5E52
:1019C0007E4FFB01C590D590E590F490FC0100A1FD
:1019D00011A122A133A1B701A601409550956095B0
:1019E0007095402351236223732340A351A362A324
:1019F00073A30C211D212E213F2181E0012B022BFD
:101A0000032B09F480E01F910F91FF90EF90DF907E
:101A1000CF900895860F911DFC0180A908958F92A3
:101A20009F92AF92BF92CF92DF92EF92FF920F936D
:101A30001F93CF93DF937C01EB01FC01828188230C
:101A400009F465C0ED5AFF4F608170E0762F66277C
:101A5000F701EC5AFF4F8081682B80E090E00E94F4
:101A60004B1920E030EC4FEF53E40E941C184B015F
:101A70005C01B7FAB094B7F8B094F701EB5AFF4F96
:101A80001081F701EA5AFF4F0081F701E95AFF4F31
:101A9000608170E0762F6627F701E85AFF4F80815A
:101AA000682B80E090E00E944B1920E030EC4FEF73
:101AB00053E40E941C186B017C01F7FAF094F7F8CC
:101AC000F094219789F4602F70E0712B80E090E012
:101AD0000E944B1920E030EC4FEF53E40E941C1899
:101AE0009058A701960104C0A7019601C501B40151
:101AF0000E9490182BED3FE049E450E40E941D182D
:101B000021EE3EE245E652E40E94051A03C060E081
:101B100070E0CB01DF91CF911F910F91FF90EF907B
:101B2000DF90CF90BF90AF909F908F9008958F924D
:101B30009F92AF92BF92CF92EF920F93FC011F92B0
:101B40001F927F936F935F934F934A01A12CB12C07
:101B5000A2E0CA2EEE24E39409E021E240856781E9
:101B6000858196810E94FD070F900F900F900F9036
:101B70000F900F900F91EF90CF90BF90AF909F90EC
:101B80008F900895FC01ED58FF4F660F6083BC01F4
:101B900066597F4F40E350E00C94970D6115710535
:101BA00019F460E00C94C20DFB01FF27E35AFE4FCD
:101BB000E491DC01AD58BF4FEF70EE0F2C91E22B9A
:101BC000EC93BC0166597F4F40E350E00C94970DB5
:101BD0006F927F928F929F92AF92BF92CF92EF922D
:101BE0000F93CF93DF93CDB7DEB728970FB6F89456
:101BF000DEBF0FBECDBF3C0181E089831A826A5FE0
:101C00007F4FDE011396CE010996FB012291BF01A1
:101C10002D93A817B907C9F71F921F92CE010196FD
:101C20009F938F931F9288E08F93B8E08B2E912C17
:101C3000A12CB12C03E0C02E85EFE82E09E021E2B3
:101C4000F30140856781858196810E94FD070F9091
:101C50000F900F900F900F900F9028960FB6F8945A
:101C6000DEBF0FBECDBFDF91CF910F91EF90CF9030
:101C7000BF90AF909F908F907F906F9008958F92BC
:101C80009F92AF92BF92CF92EF920F93CF93DF9339
:101C900000D01F92CDB7DEB7FC0182E489838CE0CF
:101CA0008A831B821C821F921F92CE0101969F93F2
:101CB0008F931F9284E08F9344E0842E912CA12C6B
:101CC000B12C53E0C52E64EFE62E09E021E24085F9
:101CD0006781858196810E94FD070F900F900F907C
:101CE0000F900F900F900F900F900F900F90DF912B
:101CF000CF910F91EF90CF90BF90AF909F908F902A
:101D000008950F931F93FC019A018B01438567810E
:101D1000858196810E9401071F910F910895EF928E
:101D2000FF920F931F93CF93DF931F921F92CDB714
:101D3000DEB77C01FC018389882309F44EC08281CF
:101D4000811103C08481882329F180E490E09A8383
:101D500089838701065D1F4F9E012F5F3F4FF7016B
:101D600046856781858196810E9457090E946B1183
:101D7000F7010489158926893789601B710B820B4D
:101D8000930B653671058105910538F1C7010E94F5
:101D9000A70C23C0F70183818823F9F00E946B11FF
:101DA000F7010489158926893789601B710B820B1D
:101DB000930B613A7F408105910578F0B701665930
:101DC0007F4F47E050E0C7010E94810E0E946B11D7
:101DD000F701648B758B868B978B80E00F900F904B
:101DE000DF91CF911F910F91FF90EF900895FC012B
:101DF000E459FF4F6083FC01E359FF4F4083FC012E
:101E0000E259FF4F2083BC0166597F4F47E050E005
:101E10000C94810ECF92DF92EF92FF920F931F935B
:101E2000E42F042F152F9B01772737FD7A95632F19
:101E3000522F412F6901FF24D7FCF094EF2C2E2F55
:101E40006C2D1F910F91FF90EF90DF90CF900C942D
:101E5000F70E8F929F92AF92BF92CF92EF920F9315
:101E60001F93CF93DF93CDB7DEB72B970FB6F894C0
:101E7000DEBF0FBECDBFDC0185E0898380E18887AE
:101E800081E0898782E08A8782E18B878B01CE019E
:101E900002969E01285F3F4FF80141918F01FC019E
:101EA0004193CF01E217F307B9F71F921F92CE01BA
:101EB00001969F938F931F928BE08F931BE0812E4F
:101EC000912CA12CB12C03E0C02E85E0E82E09E076
:101ED00021E218964C91189717966C9117971596C2
:101EE0008D919C9116970E94FD070F900F900F9077
:101EF0000F900F900F902B960FB6F894DEBF0FBE89
:101F0000CDBFDF91CF911F910F91EF90CF90BF90F8
:101F1000AF909F908F900895DC015196ED91FC91C8
:101F20005297309709F01994FC012381222331F054
:101F300040E050E06FEF70E00C940A0F61E070E059
:101F40000C94CE0D3F924F925F926F927F928F9240
:101F50009F92AF92BF92CF92DF92EF92FF920F9338
:101F60001F93CF93DF93CDB7DEB762970FB6F89488
:101F7000DEBF0FBECDBF7C01462E342E522EDC01BB
:101F80001596CD90DC90169717968C9181113CC1D7
:101F9000D601ED91FC910190F081E02D60E0C60149
:101FA00019955C01009711F486ED33C1FC01608046
:101FB00071806114710409F429C14701F8E08F0EA2
:101FC000911CDC0111969C928E9214965C928E016B
:101FD0000F5F1F4F22E130E040E060E0F7018581B4
:101FE00096810E94DC08182FD5016D927C92811198
:101FF00001C16B847C8489859A858C34954009F075
:10200000F8C0E8E66E16E2E07E0659F0FFE26F16D1
:10201000F4E07F0631F025ED621623E0720609F048
:10202000E8C0D601ED91FC910280F381E02D232DD3
:1020300040E0642DC6011995F7018783882309F4D0
:10204000E7C098859187282F40E060E085819681E0
:102050000E940309182FD601ED91FC91D501149629
:102060001C92882359F00480F581E02DD701179642
:102070006C91C6011995F7011782C4C00190F081D7
:10208000E02DD70117966C91C6011995009709F4B8
:102090008BCFFC015482940141E0D70117966C91DB
:1020A000179715968D919C9116970E941B04182FD7
:1020B0008111A0C0E2E0DE2EF701D38690E4948780
:1020C00084E0858701E006879787808B940143E051
:1020D0006781858196810E941B04182F81118AC017
:1020E00068EC70E080E090E00E949A1121E0D70156
:1020F00018964C91189717966C91179715968D9185
:102100009C9116970E943209182F811173C0B8E66E
:102110006B16B2E07B0641F0EFE26E16E4E07E065D
:1021200039F5F701048303C0D70112960C93C70158
:102130000E943F0E80E090E0FC01E859FE4FE491E0
:10214000D701A80FB91FA659BF4FEC930196803352
:10215000910591F78FE7D701D0968C93D097D196C0
:102160008C93D197D2968C93D297D3968C9305C0AB
:10217000F7010383E659FF4FD082D70194968C91E3
:102180009497811118C095968C919597811113C0E1
:1021900096968C91969781110EC097968C919797F1
:1021A000811109C098968C919897811104C09996D5
:1021B0008C91882371F0F7018381B7016C5D7F4FAB
:1021C000882321F0C7010E94290F03C0C7010E9484
:1021D000E80DC7010E948C0F81E0D70153968C93C4
:1021E0000E946B11F701648B758B868B978B80E057
:1021F00010C011EDD701ED91FC910480F581E02D27
:10220000C7011995812F05C089ED03C087ED01C075
:1022100084ED62960FB6F894DEBF0FBECDBFDF919E
:10222000CF911F910F91FF90EF90DF90CF90BF90D3
:10223000AF909F908F907F906F905F904F903F9066
:1022400008951F920F920FB60F9211242F933F9370
:102250008F939F93AF93BF938091CA039091CB03C9
:10226000A091CC03B091CD033091C90323E0230F9B
:102270002D3720F40196A11DB11D05C026E8230FBE
:102280000296A11DB11D2093C9038093CA039093A8
:10229000CB03A093CC03B093CD038091CE03909158
:1022A000CF03A091D003B091D1030196A11DB11D20
:1022B0008093CE039093CF03A093D003B093D10328
:1022C000BF91AF919F918F913F912F910F900FBE32
:1022D0000F901F9018952FB7F8946091CA037091D2
:1022E000CB038091CC039091CD032FBF08953FB7CE
:1022F000F8948091CE039091CF03A091D003B09138
:10230000D10326B5A89B05C02F3F19F00196A11D4A
:10231000B11D3FBF6627782F892F9A2F620F711D3D
:10232000811D911D42E0660F771F881F991F4A95F6
:10233000D1F70895CF92DF92EF92FF92CF93DF9380
:102340006B017C010E947711EB01C114D104E104FF
:10235000F10479F00E9477116C1B7D0B683E73408D
:10236000A0F381E0C81AD108E108F108C851DC4F98
:10237000ECCFDF91CF91FF90EF90DF90CF90089559
:10238000789484B5826084BD84B5816084BD85B550
:10239000826085BD85B5816085BDEEE6F0E0808117
:1023A00081608083E1E8F0E0108280818260808338
:1023B000808181608083E0E8F0E0808181608083BB
:1023C000E1EBF0E0808184608083E0EBF0E08081ED
:1023D00081608083E1E9F0E0808182608083808198
:1023E00081608083E0E9F0E0808181608083E1EAC0
:1023F000F0E0808182608083808181608083E0EA78
:10240000F0E0808181608083E1E2F1E080818260A0
:102410008083808181608083E0E2F1E0808181605F
:102420008083EAE7F0E0808184608083808182603D
:102430008083808181608083808180688083109226
:10244000C10008950C948D1708950E94C0110E9438
:10245000FD01C2EBD3E10E9401022097E1F30E944B
:10246000B213F9CFFC0124853585F901E05CFF4FFB
:1024700080819181F901EE5BFF4F20813181821BC8
:10248000930B8F7399270895FC0184859585FC0132
:10249000E05CFF4F40815181FC01EE5BFF4F2081EA
:1024A00031814217530741F00190F081E02DE80F90
:1024B000F91F808190E008958FEF9FEF0895FC0150
:1024C00084859585FC01E05CFF4F40815181FC01D2
:1024D000EE5BFF4F208131814217530779F0A081D5
:1024E000B181A80FB91F8C91208131812F5F3F4F9F
:1024F0002F7333273183208390E008958FEF9FEF70
:102500000895FC0181A1882329F0A489B5898C91C3
:1025100086FFFBCF11A20895CF93DF93FC012685A0
:102520003785D901A05CBF4F8D919C911197019681
:102530008F739927E901CE5BDF4F4881598184175A
:102540009507D9F30D90BC91A02DA20FB31F6C93EA
:10255000A685B785A05CBF4F11969C938E93A689E4
:10256000B7892C9181E090E0078C02C0880F991FF9
:102570000A94E2F7282B2C9381E081A30488F58943
:10258000E02D80818064808381E090E0DF91CF91B5
:102590000895FB01E05CFF4F208131812F5F3F4FA9
:1025A0002F733327DB01AE5BBF4F4D915C91241736
:1025B000350739F0A081B181A60FB71F8C93318305
:1025C0002083089508951F920F920FB60F92112441
:1025D0000BB60F922F933F934F935F936F937F931D
:1025E0008F939F93AF93BF93EF93FF938091C0001E
:1025F00082FD07C08091C60066E376E00E94C912A2
:1026000002C08091C600FF91EF91BF91AF919F9161
:102610008F917F916F915F914F913F912F910F908B
:102620000BBE0F900FBE0F901F90189508951F922C
:102630000F920FB60F9211240BB60F922F933F9368
:102640004F935F936F937F938F939F93AF93BF93BA
:10265000EF93FF938091C80082FD07C08091CE0068
:102660006EEA75E00E94C91202C08091CE00FF910F
:10267000EF91BF91AF919F918F917F916F915F91FA
:102680004F913F912F910F900BBE0F900FBE0F9067
:102690001F90189508951F920F920FB60F92112454
:1026A0000BB60F922F933F934F935F936F937F934C
:1026B0008F939F93AF93BF93EF93FF938091D0003D
:1026C00082FD07C08091D60066E275E00E94C912C3
:1026D00002C08091D600FF91EF91BF91AF919F9181
:1026E0008F917F916F915F914F913F912F910F90BB
:1026F0000BBE0F900FBE0F901F90189508951F925C
:102700000F920FB60F9211240BB60F922F933F9397
:102710004F935F936F937F938F939F93AF93BF93E9
:10272000EF93FF938091300182FD07C080913601C5
:102730006EE974E00E94C91202C080913601FF91D7
:10274000EF91BF91AF919F918F917F916F915F9129
:102750004F913F912F910F900BBE0F900FBE0F9096
:102760001F90189588E394E00E943212892B11F093
:102770000E94E21286E194E00E943212892B11F04D
:102780000E94161384EF93E00E943212892B11F0FD
:102790000E944A1382ED93E00E943212892B11F0BD
:1027A0000C947E1308951F920F920FB60F9211246E
:1027B0000BB60F922F933F938F939F93EF93FF93BB
:1027C000209132063091330680913406909135067F
:1027D0002817390731F48091C1008F7D8093C100A3
:1027E00014C0E0913406F0913506EE50FA4F208186
:1027F000809134069091350601968F7399279093B6
:102800003506809334062093C600FF91EF919F9187
:102810008F913F912F910F900BBE0F900FBE0F9095
:102820001F9018951F920F920FB60F9211240BB69E
:102830000F922F933F938F939F93EF93FF9320914A
:10284000AA053091AB058091AC059091AD05281794
:10285000390731F48091C9008F7D8093C90014C07D
:10286000E091AC05F091AD05E659FA4F20818091D9
:10287000AC059091AD0501968F7399279093AD05A6
:102880008093AC052093CE00FF91EF919F918F91A3
:102890003F912F910F900BBE0F900FBE0F901F9086
:1028A00018951F920F920FB60F9211240BB60F922C
:1028B0002F933F938F939F93EF93FF932091220544
:1028C000309123058091240590912505281739071B
:1028D00031F48091D1008F7D8093D10014C0E091BC
:1028E0002405F0912505EE51FB4F208180912405B0
:1028F0009091250501968F739927909325058093D4
:1029000024052093D600FF91EF919F918F913F91E5
:102910002F910F900BBE0F900FBE0F901F90189528
:102920001F920F920FB60F9211240BB60F922F9396
:102930003F938F939F93EF93FF9320919A0430914D
:102940009B0480919C0490919D042817390731F4D1
:10295000809131018F7D8093310114C0E0919C04FE
:10296000F0919D04E65AFB4F208180919C04909148
:102970009D0401968F73992790939D0480939C04E6
:1029800020933601FF91EF919F918F913F912F916D
:102990000F900BBE0F900FBE0F901F901895CF9207
:1029A000DF92EF92FF92CF93DF93EC016A017B01FC
:1029B000411581EE580761057105F9F0EC89FD8933
:1029C00081E090E008A002C0880F991F0A94E2F706
:1029D000808360E079E08DE390E0A70196010E949A
:1029E0006B1A215031094109510956954795379580
:1029F0002795211580E1380798F0EC89FD89108230
:102A000060E874E88EE190E0A70196010E946B1ADD
:102A10002150310941095109569547953795279518
:102A2000E889F9893083EA89FB89208319A2EE8934
:102A3000FF89408181E090E09C010C8C02C0220F54
:102A4000331F0A94E2F7422B4083EE89FF894081CD
:102A50009C010D8C02C0220F331F0A94E2F7422B17
:102A60004083EE89FF8940819C010E8C02C0220FB9
:102A7000331F0A94E2F7422B4083EE89FF892081BD
:102A80000F8C02C0880F991F0A94E2F78095822369
:102A90008083DF91CF91FF90EF90DF90CF900895EA
:102AA00081E00895CF9310923B0410923A0488EE8F
:102AB00093E0A0E0B0E080933C0490933D04A093A9
:102AC0003E04B0933F042BE832E030933904209366
:102AD000380446E356E0509345044093440442EFE3
:102AE00055E0509347044093460445EC50E0509322
:102AF00049044093480444EC50E050934B04409305
:102B00004A0440EC50E050934D0440934C0441EC97
:102B100050E050934F0440934E0442EC50E05093E9
:102B200051044093500446EC50E0509353044093BA
:102B30005204C4E0C0935404F3E0F0935504E7E07A
:102B4000E093560475E07093570461E06093580475
:102B5000109219041092180480931A0490931B0485
:102B6000A0931C04B0931D04309317042093160403
:102B70004EEA55E050932304409322044AE655E080
:102B800050932504409324044DEC50E050932704C7
:102B9000409326044CEC50E05093290440932804C1
:102BA00048EC50E050932B0440932A0449EC50E049
:102BB00050932D0440932C044AEC50E050932F0482
:102BC00040932E044EEC50E0509331044093300477
:102BD000C0933204F0933304E093340470933504CB
:102BE000609336041092F7031092F6038093F80373
:102BF0009093F903A093FA03B093FB033093F5038A
:102C00002093F40346E255E05093010440930004FE
:102C100042EE54E0509303044093020445ED50E02B
:102C2000509305044093040444ED50E0509307048E
:102C30004093060440ED50E050930904409308048B
:102C400041ED50E050930B0440930A0442ED50E0F4
:102C500050930D0440930C0446ED50E050930F0444
:102C600040930E04C0931004F0931104E0931204F7
:102C700070931304609314041092D5031092D4033C
:102C80008093D6039093D703A093D803B093D9032E
:102C90003093D3032093D2038EE994E09093DF0323
:102CA0008093DE038AE594E09093E1038093E00350
:102CB00085E391E09093E3038093E20384E391E062
:102CC0009093E5038093E40380E391E09093E7031E
:102CD0008093E60381E391E09093E9038093E80316
:102CE00082E391E09093EB038093EA0386E391E023
:102CF0009093ED038093EC03C093EE03F093EF0306
:102D0000E093F0037093F1036093F203CF91089581
:102D1000CF92DF92EF92FF920F931F93CF93DF93A7
:102D20006C017A01EB01E60EF71E00E010E0CE1513
:102D3000DF0561F06991D601ED91FC910190F08180
:102D4000E02DC6011995080F191FF1CFC801DF91B9
:102D5000CF911F910F91FF90EF90DF90CF9008954A
:102D60006115710581F0DB010D900020E9F7AD01DF
:102D700041505109461B570BDC01ED91FC9102803B
:102D8000F381E02D199480E090E008950C94B01642
:102D9000DC01ED91FC910190F081E02D19940F93ED
:102DA0001F93CF93DF93EC016DE00E94C8168C0156
:102DB0006AE0CE010E94C816800F911FDF91CF916B
:102DC0001F910F9108950F931F93CF93DF93EC0101
:102DD0000E94B0168C01CE010E94CF16800F911F69
:102DE000DF91CF911F910F910895CF93DF938230A0
:102DF000910510F482E090E0E0917C06F0917D0670
:102E000020E030E0A0E0B0E0309739F1408151811E
:102E100048175907B8F04817590771F48281938110
:102E2000109729F013969C938E9312972CC0909331
:102E30007D0680937C0627C02115310531F04217AD
:102E4000530718F0A901DB0101C0EF019A01BD0190
:102E5000DF010280F381E02DD7CF21153105F9F094
:102E6000281B390B2430310580F48A819B81611540
:102E7000710521F0FB019383828304C090937D064A
:102E800080937C06FE01329644C0FE01E20FF31FE0
:102E90008193919322503109398328833AC020913C
:102EA0007A0630917B06232B41F420910202309167
:102EB000030230937B0620937A0620910002309122
:102EC00001022115310541F42DB73EB740910402AE
:102ED00050910502241B350BE0917A06F0917B0698
:102EE000E217F307A0F42E1B3F0B2817390778F0E1
:102EF000AC014E5F5F4F2417350748F04E0F5F1F40
:102F000050937B0640937A068193919302C0E0E050
:102F1000F0E0CF01DF91CF910895CF93DF93009739
:102F200009F487C0FC01329713821282C0917C069B
:102F3000D0917D06209781F420813181280F391F9F
:102F400080917A0690917B068217930779F5F0932A
:102F50007B06E0937A066DC0DE0120E030E0AE171C
:102F6000BF0750F412964D915C9113979D01411546
:102F7000510509F1DA01F3CFB383A2834081518176
:102F8000840F951F8A179B0771F48D919C9111975F
:102F9000840F951F02969183808312968D919C9148
:102FA0001397938382832115310529F4F0937D06CD
:102FB000E0937C063EC0D9011396FC93EE931297E2
:102FC0004D915D91A40FB51FEA17FB0779F480813D
:102FD0009181840F951F0296D90111969C938E932F
:102FE0008281938113969C938E931297E0E0F0E098
:102FF0008A819B81009719F0FE01EC01F9CFCE0187
:10300000029628813981820F931F20917A06309190
:103010007B062817390769F4309729F410927D064A
:1030200010927C0602C013821282D0937B06C0935A
:103030007A06DF91CF9108955058BB27AA270ED06A
:10304000A3C194D130F099D120F031F49F3F11F415
:103050001EF464C10EF4E095E7FB5AC1E92FA5D137
:1030600080F3BA17620773078407950718F071F4A5
:103070009EF5BDC10EF4E0950B2EBA2FA02D0B01CD
:10308000B90190010C01CA01A0011124FF27591BAD
:1030900099F0593F50F4503E68F11A16F040A22FB3
:1030A000232F342F4427585FF3CF46953795279524
:1030B000A795F0405395C9F77EF41F16BA0B620B23
:1030C000730B840BBAF09150A1F0FF0FBB1F661F6A
:1030D000771F881FC2F70EC0BA0F621F731F841FAD
:1030E00048F4879577956795B795F7959E3F08F0D3
:1030F000B3CF9395880F08F09927EE0F9795879592
:10310000089534D158F080E891E009F49EEF35D16C
:1031100028F040E851E059F45EEF09C0FFC067C1F4
:10312000E92FE07842D168F3092E052AC1F326176A
:1031300037074807590738F00E2E07F8E02569F0E1
:10314000E025E0640AC0EF6307F8009407FADB01AA
:10315000B9019D01DC01CA01AD01EF9343D014D147
:103160000AD05F91552331F02BED3FE049E450FD4B
:1031700049EC63CF0895DF93DD27B92FBF7740E88F
:103180005FE31616170648075B0710F4D92F36D1F0
:103190009F938F937F936F939BD1E4EEF0E0C1D028
:1031A000F3D02F913F914F915F913BD1DD2349F0B7
:1031B0009058A2EA2AED3FE049EC5FE3D0785D2722
:1031C0004DDFDF91E1C00CD0DFC0D7D040F0CED0D2
:1031D00030F021F45F3F19F09BC0511109C19EC02E
:1031E000E4D098F39923C9F35523B1F3951B550BFC
:1031F000BB27AA2762177307840738F09F5F5F4FCA
:10320000220F331F441FAA1FA9F333D00E2E3AF00A
:10321000E0E830D091505040E695001CCAF729D024
:10322000FE2F27D0660F771F881FBB1F2617370773
:103230004807AB07B0E809F0BB0B802DBF01FF27A3
:1032400093585F4F2AF09E3F510568F061C0D0C08F
:103250005F3FECF3983EDCF3869577956795B795DD
:10326000F7959F5FC9F7880F911D9695879597F9F8
:103270000895E1E0660F771F881FBB1F6217730771
:103280008407BA0720F0621B730B840BBA0BEE1F86
:1032900088F7E0950895E89409C097FB3EF490956F
:1032A0008095709561957F4F8F4F9F4F9923A9F01F
:1032B000F92F96E9BB279395F695879577956795AE
:1032C000B795F111F8CFFAF4BB0F11F460FF1BC0F2
:1032D0006F5F7F4F8F4F9F4F16C0882311F096E985
:1032E00011C0772321F09EE8872F762F05C0662333
:1032F00071F096E8862F70E060E02AF09A95660FEC
:10330000771F881FDAF7880F9695879597F90895A4
:1033100097F99F6780E870E060E008959FEF80EC88
:103320000895DF93CF931F930F93FF92EF92DF9255
:103330007B018C01689405C0DA2EEF0172D0FE018A
:10334000E894A5912591359145915591AEF3EF0102
:1033500085DEFE019701A801DA9479F7DF90EF90FE
:10336000FF900F911F91CF91DF91089500240A944F
:103370001616170618060906089500240A94121650
:103380001306140605060895092E0394000C11F483
:10339000882352F0BB0F40F4BF2B11F460FF04C030
:1033A0006F5F7F4F8F4F9F4F089557FD9058440F89
:1033B000551F59F05F3F71F04795880F97FB991F94
:1033C00061F09F3F79F08795089512161306140651
:1033D000551FF2CF4695F1DF08C0161617061806DE
:1033E000991FF1CF86957105610508940895E894B9
:1033F000BB2766277727CB0197F908959B01AC017E
:1034000060E070E080E89FE3DECE0BD0BDCFAEDFA2
:1034100028F0B3DF18F0952309F07ACF7FCF11247D
:10342000E7CFC3DFA0F3959FD1F3950F50E0551F71
:10343000629FF001729FBB27F00DB11D639FAA2709
:10344000F00DB11DAA1F649F6627B00DA11D661F58
:10345000829F2227B00DA11D621F739FB00DA11D79
:10346000621F839FA00D611D221F749F3327A00D33
:10347000611D231F849F600D211D822F762F6A2FCF
:1034800011249F5750408AF0E1F088234AF0EE0F54
:10349000FF1FBB1F661F771F881F91505040A9F761
:1034A0009E3F510570F034CFA3CF5F3FECF3983EC1
:1034B000DCF3869577956795B795F795E7959F5FC8
:1034C000C1F7FE2B880F911D9695879597F9089562
:1034D0009B01AC019ACFA1E21A2EAA1BBB1BFD01D6
:1034E0000DC0AA1FBB1FEE1FFF1FA217B307E407E3
:1034F000F50720F0A21BB30BE40BF50B661F771F3B
:10350000881F991F1A9469F760957095809590951A
:103510009B01AC01BD01CF0108950790F691E02D0C
:1035200019940F931F93CF93DF93869F8001879FFA
:10353000100D969F100D1124C8010E94F516EC0184
:10354000009729F0A80160E070E00E94AD1ACE015A
:10355000DF91CF911F910F910895DC0101C06D9310
:0C35600041505040E0F70895F894FFCF70
:10356C0000007E0680005570005269676874000187
:10357C000002000000020000000100000001000237
:10358C000003000C000D000E000F00080009000ADB
:10359C00000B0004000500000000003A0185014CFE
:1035AC0001C10137014661696C656420746F207339
:1035BC0074617274205553420000000000241224E0
:1035CC001224122412241200000000DE036903E905
:1035DC000900000000A20F310C4E0C8F0E360C337C
:1035EC000C3C0C340C390C000000008C1288163288
:0835FC00125F1244128112005B
:00000001FF
